:020000040800F2
:10000000205E0020DD010008BB230008051E00085B
:10001000B9230008B90200082929000800000000DF
:100020000000000000000000000000004501000882
:10003000290300080000000089010008BD23000812
:10004000F7010008F7010008F7010008F7010008B0
:10005000F7010008F7010008F7010008F7010008A0
:10006000F7010008F7010008F7010008BD020008C9
:10007000C9020008D5020008E1020008ED020008EC
:10008000F902000805030008F7010008F70100085D
:10009000F7010008F7010008F7010008F701000860
:1000A000F7010008F7010008F7010008F701000850
:1000B000F7010008F7010008F7010008F701000840
:1000C000F7010008F7010008F7010008F701000830
:1000D000F701000805290008112900081D2900085A
:1000E000F7010008F7010008F7010008F701000810
:1000F00091240008F7010008F7010008F701000843
:10010000F7010008F7010008F7010008F7010008EF
:1001100019270008F7010008F7010008F701000897
:10012000F7010008F7010008110300081D0300088B
:10013000DFF80CD000F088F8004800476929000873
:10014000205E0020224B19680868B0E8F00F80F3A9
:100150000988BFF36F8F4FF0000080F311884EF0D5
:100160000D0E70470000000006480068006880F32C
:10017000088862B661B6BFF34F8FBFF36F8F00DFA1
:1001800000BF00BF08ED00E0EFF30980BFF36F8F01
:100190000F4B1A6820E9F00F106008B54FF05000BF
:1001A00080F31188BFF34F8FBFF36F8F03F0F2F925
:1001B0004FF0000080F31188BDE808401968086816
:1001C000B0E8F00F80F30988BFF36F8F704700BF6E
:1001D0002C000020EFF305807047000006488047A0
:1001E00006480047FEE7FEE7FEE7FEE7FEE7FEE71C
:1001F000FEE7FEE7FEE7FEE74924000831010008BC
:1002000040EA01039B0703D009E008C9121F08C098
:10021000042AFAD203E011F8013B00F8013B521E18
:10022000F9D27047D2B201E000F8012B491EFBD28F
:1002300070470022F6E710B513460A4604461946F1
:10024000FFF7F0FF204610BD064C074D06E0E068C2
:1002500040F0010394E8070098471034AC42F6D30D
:10026000FFF76AFFCC3F0008EC3F000870B504467A
:1002700000688168C943C9071CD1816821F0010168
:10028000816000F01DFD05460FE000BF00F018FD85
:10029000401B022809D9A06A40F01000A062E06A61
:1002A00040F00100E062012070BD20688068C0431A
:1002B000C007EBD0002070BDFEE70000014800F051
:1002C0009BBA0000D0000020014800F095BA000061
:1002D00044040020014800F08FBA00000004002010
:1002E000014800F089BA000034030020014800F002
:1002F00083BA0000F0020020014800F07DBA00003F
:1003000078030020014800F077BA0000BC03002009
:10031000014800F071BA000068020020014800F0B6
:100320006BBA0000AC02002070477047F8B500249B
:10033000009490F824202546012A12D0012280F84A
:1003400024204A681F23072A0DD20668776B521EA5
:1003500002EB820293409F430B6893401F437763F5
:1003600019E00220F8BD06680D2A0AD2376BD21FA9
:1003700002EB820293409F430B6893401F43376315
:1003800009E0F76A0D3A02EB820293409F430B6843
:1003900093401F43F7620A68072306680A2A0AD3B4
:1003A000F7680A3A02EB420293409F438B689340FE
:1003B0001F43F76008E0376902EB420293409F4316
:1003C0008B6893401F4337610A68102A01D0112AB5
:1003D00020D1124B02689A4217D193681B0219D49C
:1003E000936843F4000393600968102912D10C4903
:1003F0000C4A0968B1FBF2F101EB8101490000E010
:10040000491E00910029FBD104E0816A41F02001DE
:100410008162012480F824502046F8BD0024014068
:100420002800002040420F002DE9F04104004FF069
:1004300000057FD0A06A002628B9E66284F824600F
:10044000204600F081F82046FFF710FFA16AC90698
:1004500000D420B1A06A40F01000A0626AE0A16A56
:1004600021F4885141F00201A162334923688B4293
:10047000E16904D1B1F5402F01D14FF40021277B70
:100480004FF4807C41EA470261680A43A1686145F4
:1004900008D0012906D0002194F814E0BEF1010F24
:1004A00002D00AE06146F7E7C7B1A76A47F0200724
:1004B000A762E76A47F00107E7625F6827F46947C8
:1004C0000F435F60236899681C4F3940114399605E
:1004D000A16861450BD0012909D00CE0DFF860E08C
:1004E000A7690EEB47370F4347F40061E5E7218A20
:1004F0000D05A5F580152168CB6A23F470032B4305
:10050000CB62216889680F4B1940914208D1E6629D
:10051000A16A21F0020141F00101A162BDE8F08170
:10052000A06A20F0020040F01000A062E06A40F0F3
:100530000100E0620120F1E7003C0140FDF7E1FF2E
:1005400000E0FFFFFE0E1FFF70B586B000250646D7
:1005500000950195029503950068214988423DD197
:100560002049886940F400708861886900F400704F
:100570000490886940F010008861886900F01000DC
:100580000490886940F0040088618869032400F0C1
:10059000040004900C20CDE900046946124800F0E4
:1005A0008DFACF20CDE900046946104800F086FAA4
:1005B000104C0F48C4E900058020C4E902508000B7
:1005C0002061800060612020C4E90605204600F01B
:1005D00037FA08B1FFF7A9FE3462666206B070BD53
:1005E00000240140001002400010014000080140BA
:1005F00008000240D000002070B54379012B20D0C4
:1006000001254571022303710668346802F0100366
:1006100040F6FE729A409443D1E900210A439A4081
:100620002243326002681468C02199408C431460F0
:10063000026813688B4313600571002141710846FD
:1006400070BD022070BD70B5040003D02079002574
:1006500010B105E0012070BD6571204600F008F87A
:1006600002202071256101202071002070BD000052
:1006700000B585B0002100910191029103910068BD
:100680000E49884218D10E48C16941F00051C1613C
:10069000C16901F000510491816941F00401816157
:1006A0008069694600F00400049030200090032027
:1006B0000190044800F002FA05B000BD007400404B
:1006C00000100240000801402DE9F05F90F8211071
:1006D0000024022903D004218163012485E00168FC
:1006E0000A6822F00E020A6001680A6822F001021C
:1006F0000A603F4E3E4FB215DFF8F4C0DFF8F090CD
:10070000DFF8ECA0DFF8E8B0DFF8E4E00168783F5C
:1007100013011502ACF1640CA9F15009AAF13C0ACD
:10072000ABF1280BAEF1140E4FF48018B14227D96B
:10073000B9420ED0614512D049451DD0514518D05F
:10074000594518D0714501D1424615E0294EB142B4
:1007500001D1012210E0274E1436B14201D11022FE
:100760000AE0244E2836B14206D0224A3C32914259
:1007700001D11A4600E02A461E49091F0A602BE0F3
:10078000B94213D0614517D0494522D051451DD0FB
:1007900059451DD0714501D142461AE0B14202D1FE
:1007A0004FF0807215E0134EB14201D1012210E0EA
:1007B000104E1436B14201D110220AE00D4E2836F7
:1007C000B14206D00B4A3C32914201D11A4600E0B8
:1007D0002A46074980394A60012180F8211000210A
:1007E00080F82010416B01B188472046BDE8F09F9A
:1007F00080000240080402402DE9F05FC16B0A68E6
:1008000001680B68046C4FF0040808FA04F8844D82
:10081000844E854FDFF814C2DFF81492DFF814A27B
:10082000DFF814B2DFF814E218EA020F65D05FEACD
:10083000437862D50A68920603D40A6822F004025B
:100840000A60DFF8F0814FF48062016808F1140853
:1008500013011402414524D9A9420DD0B1420FD051
:10086000B9421AD0614515D0494515D0514501D13D
:10087000120312E0594501D104220EE0714501D165
:1008800040220AE06D4D1435A94206D06B4A283249
:10089000914201D11A4600E022466749091F0A60C9
:1008A00029E0A94213D0B14215D0B94220D0614508
:1008B0001BD049451BD0514502D14FF4800217E0AF
:1008C000414502D14FF0806212E0594501D1042226
:1008D0000EE0714501D140220AE0584D1435A9427D
:1008E00006D0564A2832914201D11A4600E02246EB
:1008F0004B4908394A60C16A71E04FF0020808FAB2
:1009000004F818EA020F70D05FEA83786DD50A68A0
:10091000920606D40A6822F00A020A60012180F8D1
:100920002110DFF810814FF40072016808F11408FB
:1009300013011402414524D9A9420DD0B1420FD070
:10094000B9421AD0614515D0494515D0514501D15C
:10095000120312E0594501D102220EE0714501D186
:1009600020220AE0354D1435A94206D0334A2832F8
:10097000914201D11A4600E022462F49091F0A6020
:1009800029E0A94213D0B14215D0B94220D0614527
:100990001BD049451BD0514502D14FF4001217E03E
:1009A000414502D14FF0007212E0594501D10222B7
:1009B0000EE0714501D120220AE0204D1435A942F4
:1009C00006D01E4A2832914201D11A4600E0224642
:1009D000134908394A60002180F82010816A0029F3
:1009E0001CD0BDE8F05F0847FFE70825A540154289
:1009F00014D01A0712D50A6822F00E020A6090F885
:100A00004020C36B012101FA02F25A60816380F831
:100A10002110002180F82010016BE0E7BDE8F09F75
:100A2000080002401C000240300002404400024026
:100A3000580002406C000240080402401C040240BE
:100A400030B560B11A4B026814219A4209D2194B91
:100A50001344B3FBF1F18900016417490AE0012056
:100A600030BD134B5B421344B3FBF1F189000164C9
:100A70000F490839C163022180F82110136843F639
:100A8000F0718B43F0E901142143D0E902452C4376
:100A90002143046921434469214384692143194363
:100AA000116000214163012242770177084630BD81
:100AB00008040240F8FFFDBF000002402DE9F84F96
:100AC000DFF8C891002409F1040A0AF1040B234657
:100AD0000F270BF1040ED1E00125A54006EA05021F
:100AE000AA4276D1DFF8A8C14E68A6EB0C0866458D
:100AF0002BD00DDC032E34D005DC36B3012E19D0FB
:100B0000022E2FD11BE0112E16D0122E2AD119E061
:100B1000B8F5881F19D006DCB8F5803F15D0B8F5B8
:100B2000801F1FD111E0B8F5001F0ED0B8F5041FCB
:100B300018D10AE0CB6815E0CB681B1D12E0CB682A
:100B400008330FE0CB680C330CE08B682BB1012B22
:100B50004FF0080303D0456104E0042302E005617F
:100B600000E00023FF2A01D8064601E000F1040658
:100B70004FEA840501D9A5F12005D6F8008007FACF
:100B800005FC28EA0C0803FA05F548EA0508C6F84A
:100B900000804D68ED0070D53E4DAE6946F001060F
:100BA000AE61AD6924F0030605F0010500953A4DEC
:100BB00006EB050CDCF80850A607360F07FA06F816
:100BC00025EA0805DFF8D480404503D14FF000083E
:100BD00025E052E0DFF8C880404502D14FF001081F
:100BE0001DE0DFF8C080404502D14FF0020816E05A
:100BF000DFF8B480404502D14FF003080FE0DFF882
:100C0000AC80404502D14FF0040808E0DFF8A08036
:100C1000404502D14FF0050801E04FF0060808FA00
:100C200006F848EA0508CCF808804D68D9F8006055
:100C3000ED034D4601D5164300E096432E604D6806
:100C4000DAF80060AD03554601D5164300E096433F
:100C50002E604D68DBF80060ED025D4601D516435D
:100C600000E096432E604D68DEF80060AD027546E8
:100C700001D5164300E096432E60641C0A681646B0
:100C8000E2407FF429AFBDE8F88F00000004014086
:100C90000000111000100240000001400008014057
:100CA000000C0140001001400014014000180140F8
:100CB000001C01400AB1016170470904FBE7000014
:100CC00001488068704700001C00002002488168CD
:100CD00002781144816070471C000020074810B55D
:100CE000016841F010010160032000F095F8002038
:100CF00000F006F800F03EF8002010BD0020024091
:100D000000B5014687B000222C2000F065F82C20A9
:100D100000F054F81348816941F400518161806901
:100D200005A900F400500690684600F093F900F021
:100D3000C1F90D490D4AB0FBF1F10D48491E0260A1
:100D4000416040F2E7320021C0E90321816000F0F8
:100D5000AAFB10B1012007B000BD054800F0D0FB90
:100D6000F9E700000010024040420F00003401404B
:100D7000880400200F4808B5816941F001018161B4
:100D8000816901F001010091C16941F08051C161A7
:100D9000C069002200F0805000900F21901E00F0EA
:100DA0001BF80548416821F0E06141F000714160A5
:100DB00008BD00000010024000000140002809DBCF
:100DC00000F01F02012191404009800000F1E02065
:100DD000C0F8001170470000F0B40E4B1B680C46C1
:100DE000C3F30223C3F10705042D00D90425191DFF
:100DF000072901D2002300E0DB1E012606FA05F1D7
:100E0000491E214099409E40761E16403143F0BC59
:100E100001F08BBD0CED00E0064900F00702086808
:100E20004FF6FF03184040EA0220034A10430860CF
:100E3000704700000CED00E00000FA052DE9F843D2
:100E400005460078354CC00754D0E0690026C00044
:100E500008D4E06940F08050E061E069012600F0CC
:100E6000805000902E480168C90512D40168804660
:100E700041F480710160FFF723FF074605E000BFE2
:100E8000FFF71EFFC01B642823D8D8F80000C00558
:100E9000F6D5206A10F4407021D0A98801F4407181
:100EA00081421CD0206A1F49012220F440700A6050
:100EB00000220A602062C00711D0FFF701FF074639
:100EC00041F2883808E000BFFFF7FAFEC11B414538
:100ED00002D90320BDE8F883206A8007F4D5206A90
:100EE000696820F44070084320621EB1E06920F078
:100EF0008050E0612878800705D56068A96820F4F3
:100F00004040084360602878C00605D5606869697C
:100F100020F48000084360600020DBE700100240FE
:100F200000700040400442422DE9F0470F460500A2
:100F300061D0434E306800F00700B84209D23068F3
:100F400020F0070038433060306800F00700B842F6
:100F500051D128683B4C810712D5400703D5606802
:100F600040F4E06060602878000703D5606840F4D2
:100F7000605060606068A96820F0F000084360601D
:100F80002878C00728D06868012810D02168022876
:100F900010D0890700292EDA616821F0030101438E
:100FA0006160FFF78DFE804641F288390DE02168CF
:100FB0008903EFE78901EDE7FFF782FEA0EB080167
:100FC000494502D90320BDE8F0876068696800F0F0
:100FD0000C00B0EB810FEFD1306800F00700B84291
:100FE0000BD9306820F0070038433060306800F0DB
:100FF0000700B84201D00120E5E72878400705D571
:101000006068E96820F4E0600843606028780007C1
:1010100006D56068296920F4605040EAC10060602C
:1010200000F058F86168084AC1F30311515CC840E8
:101030000649086006480068FFF762FE0020C2E724
:1010400000200240001002407C3F000828000020E1
:10105000200000200F2202600C4A536803F00303B3
:101060004360536803F0F0038360536803F4E06364
:10107000C36052684FF4E06303EAD202026104489D
:10108000006800F007000860704700000010024090
:10109000002002400448054900684968044AC1F339
:1010A0000221515CC8407047280000200010024017
:1010B0008C3F00080448054900684968044AC1F3A8
:1010C000C221515CC8407047280000200010024037
:1010D0008C3F000812A185B00FC98DE80F0014A045
:1010E000144A006804905168134801F00C03042B63
:1010F00010D0082B0ED1C1F38343C9031DF80300A0
:101100000AD5516804AAC1F34041515C0A4A5043D0
:10111000B0FBF1F005B0704708494843FAE700001A
:1011200002030405060708090A0B0C0D0E0F101028
:10113000010200000010024000127A0000093D0088
:101140002DE9F84F040070D02078C04DC00749D079
:101150006868C0F38100012807D06868C0F3810087
:10116000022809D16868C00306D52868800339D5EC
:1011700060680028E7D035E06068B0F5803F0BD0AC
:1011800010B1B0F5A02F11D0286820F4803028606D
:10119000286820F4802002E0286840F4803028602D
:1011A000606890B1FFF78CFD06460AE0286840F4BD
:1011B00080202860F0E700BFFFF782FD801B6428D5
:1011C00073D828688003F7D50CE0FFF779FD064651
:1011D00005E000BFFFF774FD801B6428F0D8286885
:1011E0008003F7D420789A4E80074FF001094FF022
:1011F000000839D5686810F00C0F07D06868C0F394
:101200008100022809D16868C00306D428688007D5
:1012100014D52069012808D110E02069B0B1C6F8C2
:101220000090FFF74DFD074605E00AE1FFF748FD96
:10123000C01B0228C4D828688007F7D528686169D0
:1012400020F0F80040EAC10028600DE0C6F80080F8
:10125000FFF736FD074604E0FFF732FDC01B02280A
:1012600023D828688007F7D4207800072CD5794840
:10127000A169D9B1C0F80090FFF722FD074604E04C
:10128000FFF71EFDC01B02280FD8686A8007F7D53C
:1012900071484FF4FA510068B0FBF1F0009000BFC4
:1012A0000098411E0091FAD20EE080E0C0F8008064
:1012B000FFF706FD074604E0FFF702FDC01B02280A
:1012C00075D8686A8007F7D42078400760D5E86948
:1012D0000027C00008D4E86940F08050E861E86960
:1012E000012700F0805000905C480168C90513D4C4
:1012F0000168834641F480710160FFF7E1FC82469A
:1013000006E000BFFFF7DCFCA0EB0A0064284ED823
:10131000DBF80000C005F5D5E06801280AD008B167
:10132000052813D0286A20F001002862286A20F0DE
:10133000040002E0286A40F001002862E06841F2FF
:10134000883B98B1FFF7BCFC82460BE0286A40F06E
:1013500004002862EEE700BFFFF7B2FCA0EB0A0131
:1013600059455AD8286A8007F6D50CE0FFF7A8FC43
:10137000824605E0FFF7A4FCA0EB0A0159454CD8D2
:10138000286A8007F6D41FB1E86920F08050E86130
:10139000E06988B36968C1F38101022944D0022859
:1013A000C6F8608004D0FFF78BFC044638E034E0D8
:1013B000FFF786FC074604E0FFF782FCC01B02280B
:1013C0002BD828688001F7D4206AB0F5803F05D17A
:1013D0006868A16820F4003008436860D4E9080117
:1013E0000843696821F4741108436860C6F8609086
:1013F000FFF766FC044606E025E000BFFFF760FC4F
:10140000001B022809D828688001F7D51BE000BF1F
:10141000FFF756FC001B022802D90320BDE8F88F15
:1014200028688001F4D40EE00128F7D06868226AA9
:1014300000F48031914204D1616A00F47010884256
:1014400001D00120EAE70020E8E700000010024098
:101450000000424280044242280000200070004008
:101460007047704770B590F83C20012A19D00124CC
:1014700000F83C4F0222427050F83C3C5A689D688C
:1014800022F070060A684968324325F08005294336
:101490005A6050F83C2C916044700021017008465D
:1014A00070BD022070BD10B5040003D094F83D005B
:1014B00010B107E0012010BD002084F83C00204658
:1014C00000F00CF8022084F83D00211D206800F097
:1014D000E5FF012084F83D00002010BD08B500683C
:1014E000B0F1804F08D10548C16941F00101C161E7
:1014F000C06900F00100009008BD0000001002402B
:101500000168CA6842F00102CA600068816801F09F
:101510000701062903D0016841F0010101600020A4
:10152000704770B5044690F83C00012817D001259B
:1015300084F83C50022084F83D002068826822F044
:10154000770222F47F4282600868502830D00DDC98
:1015500020284DD005DC98B310283BD148E002206C
:1015600070BD302844D0402834D139E0602828D0DC
:10157000702806D0B0F5805F2CD0B0F5005F29D17F
:101580000AE0CB68D1E90121206800F0CDFF206896
:10159000816841F0770109E0CB68D1E90121206839
:1015A00000F0C2FF2068816841F48041816011E051
:1015B000CA684968206801F08BF85021206807E06C
:1015C00016E0CA684968206801F093F86021206835
:1015D00000F0B4FF84F83D50002084F83C0070BD5A
:1015E000CA684968206801F073F840212068EFE775
:1015F000226801461046EBE7704770B50446006864
:1016000001694FF00005C943890715D4C168C94372
:10161000890711D4E91E01610120207720688069C3
:101620008007204602D0FFF7E7FF04E000F0DAF879
:10163000204600F05CF9257720680169C943490715
:1016400017D4C168C943490713D46FF0040101617D
:10165000022020772068806910F4407F204602D065
:10166000FFF7CAFF04E000F0BDF8204600F03FF9A4
:10167000257720680169C943090716D4C168C943A1
:10168000090712D46FF00801016104202077206857
:10169000C0698007204602D0FFF7AEFF04E000F0EB
:1016A000A1F8204600F023F9257720680169C94395
:1016B000C90617D4C168C943C90613D46FF0100115
:1016C0000161082020772068C06910F4407F20461F
:1016D00002D0FFF791FF04E000F084F8204600F00C
:1016E00006F9257720680169C943C90708D1C1688F
:1016F000C943C90704D1891E0161204600F0F8F8EA
:1017000020680169C943090609D4C168C9430906AB
:1017100005D46FF0800101612046FFF7A1FE20682B
:101720000169C943490609D4C168C943490605D4BA
:101730006FF040010161204600F0E4F82068016983
:10174000C94389060BD4C168C943890607D46FF021
:10175000200101612046BDE87040FFF782BE70BDE8
:1017600010B586B0002100910191029103910068AB
:10177000B0F1804F2BD11748816941F00801816198
:10178000816901F008010491816941F004018161DE
:101790008069022400F00400049040F60840CDE97E
:1017A000000469460C480394FFF788F9A003CDE9CB
:1017B0000004694609480394FFF780F90848416826
:1017C00021F4407141F0E06141F44071416006B0A4
:1017D00010BD000000100240000C01400008014054
:1017E00000000140704770B5044690F83C000D467B
:1017F00001280DD0012684F83C60022084F83D00C9
:1018000042B1042A18D0082A2AD00C2A4DD139E036
:10181000022070BD206800F099FE2068816941F0C7
:10182000080181612068816921F0040181612068DB
:1018300081692A69114311E0206800F0B7FE206831
:10184000816941F4006181612068816921F48061CE
:101850008161206881692A6941EA0221816124E06D
:10186000206800F0D9FE2068C16941F00801C1611B
:101870002068C16921F00401C1612068C1692A6939
:10188000114311E0206800F0FBFE2068C16941F4BB
:101890000061C1612068C16921F48061C161206873
:1018A000C1692A6941EA0221C16184F83D600020D2
:1018B00084F83C0070BD10B5040003D094F83D00DE
:1018C00010B107E0012010BD002084F83C00204644
:1018D00000F00CF8022084F83D00211D206800F083
:1018E000DDFD012084F83D00002010BD70477047E9
:1018F00000680349884201D1FFF7E8B9704700004A
:10190000003401407047704770B5026804461068A3
:10191000D168536910F00F0F50D003F0010501F4A6
:10192000907635435DD0C20705D0CA0503D5E26B7A
:1019300042F00102E263420705D5DA0703D0E26B09
:1019400042F00202E263820705D5DA0703D0E26BB8
:1019500042F00402E263020705D5DA0703D0E26B26
:1019600042F00802E263E26B002A33D0800604D51D
:10197000880602D5204600F0EBFE20684069E16B46
:10198000C0F38010090700D428B3204600F0D2FE2F
:101990002068416949061AD5416921F04001416139
:1019A000606BA0B11B494163606BFEF78DFE0028A0
:1019B00010D0606B416BBDE870400847830610D5BE
:1019C0008B060ED52046BDE8704000F0C1BE204613
:1019D000FFF799FF70BD2046FFF795FF0020E063F9
:1019E00070BD030606D50B0604D52046BDE8704041
:1019F00000F056BF4006F3D54806F1D5D168204621
:101A000021F04001D160202184F8391000F0F9F96B
:101A100070BD00002527000870B5040004D094F8BC
:101A20003900002510B106E0012070BD84F838505F
:101A3000204600F023F8242084F839002068C1688B
:101A400021F40051C160204600F0CEFE20680169FB
:101A500021F4904101612068416921F02A0141612E
:101A60002068C16841F40051C160E563202084F81A
:101A7000390084F83A00002070BD00002DE9F047DD
:101A800086B0002500950195029503950446CF4B3D
:101A9000D0F800C0CE4802210322102780264FF440
:101AA00080689C4555D1C36943F40023C361C36971
:101AB00003F400230493836943F010038361806976
:101AC000CDE9008100F01000CDE90320DFF80483A8
:101AD00069464046FEF7F2FF3001CDE90005694650
:101AE00040460295FEF7EAFFDFF8F092BA49484611
:101AF000B046C0E90015C0E90256C9F81050C9F84F
:101B00001450C9F81850C9F81C50FEF799FF08B1D5
:101B1000FEF70BFCB14EB048C4F834904436283080
:101B2000C9F824403060C6E90175C6E903857561CE
:101B3000B5613046F561FEF783FF08B1FEF7F5FBAE
:101B400026630022052134207462FFF745F9342012
:101B50005AE0A34B4FF400799C455AD1836943F472
:101B600080438361836903F480430493836943F072
:101B7000040383618069CDE9009100F00400CDE9A0
:101B80000320DFF8609269464846FEF797FFCDE9EB
:101B90000085694648460295FEF790FFDFF83C82D3
:101BA000914908F188084046B146C0E90015C0E9EE
:101BB0000256C8F81050C8F81450C8F81850C8F8A1
:101BC0001C50FEF73DFF08B1FEF7AFFB834E864881
:101BD000C4F83480CC361438C8F824403060C6E9E4
:101BE0000175C6E903957561B5613046F561FEF78B
:101BF00027FF08B1FEF799FB266300220521252067
:101C00007462FFF7E9F82520FFF7D8F806B0BDE8C1
:101C1000F087DFF8D881764BDFF8D8A1C44568D1CA
:101C2000D0F81CC04CF4003CC0F81CC0D0F81CC05C
:101C30000CF4003CCDF810C0D0F818C04CF0200CCB
:101C4000C0F818C08069039200F0200004902020A2
:101C5000CDE90001694698461846FEF72FFF40205F
:101C6000CDE90005A946694640460295FEF726FFE4
:101C7000DAF8041041F0E06141F00801CAF80410FC
:101C8000DFF87481584940461431C0E90015C0E9B5
:101C90000256C8F81050C8F81450C8F81850C8F8C0
:101CA0001C50FEF7CDFE08B1FEF73FFB524D4E48EB
:101CB000C4F8348044352830C8F82440C5E900070A
:101CC000C5E90296C5F81090C5F81490C5F81890AB
:101CD0002846C5F81C90FEF7B3FE08B1FEF725FBB9
:101CE00025630022052126206C62FFF775F8262067
:101CF0008AE7DFF80881C44588D1D0F81CC04CF4CD
:101D0000802CC0F81CC0D0F81CC00CF4802CCDF87E
:101D100010C0D0F818C04CF0200CC0F818C0806972
:101D2000039200F0200004904FF48070CDE9000190
:101D3000694698461846FEF7C1FECDE9009569460A
:101D400040460295FEF7BAFEDAF8041021F03001A1
:101D500041F0E06141F03001CAF80410DFF89880EA
:101D6000214908F1880840462839C0E90015C0E932
:101D70000256C8F81050C8F81450C8F81850B146A8
:101D8000C8F81C50FEF75CFE08B1FEF7CEFA1A4EFA
:101D90001548C4F83480CC363C38C8F8244030604C
:101DA000C6E90175C6E903957561B5613046F5610F
:101DB000FEF746FE08B1FEF7B8FA266300220521B9
:101DC00027207462FFF708F827201DE7004C004029
:101DD0000010024000100140300402406802002060
:101DE0000038014000080140580002400044004013
:101DF000001401400000014078030020004800402A
:101E000070477047FEE70000FEB50024404800948C
:101E100001943E4902940160891581600125057392
:101E200004750A2606614FF460214460C161FEF723
:101E3000FBFA08B1FEF779FACDE9004507246946B7
:101E400033480294FEF772FA08B1FEF76EFA009575
:101E5000022569462E480195FEF768FA08B1FEF79B
:101E600064FA00950325694629480195FEF75EFA54
:101E700008B1FEF75AFA0420CDE90050694624481B
:101E8000FEF754FA08B1FEF750FA06250520CDE911
:101E9000005069461E48FEF749FA08B1FEF745FAB8
:101EA00069461B48CDE90045FEF740FA08B1FEF748
:101EB0003CFA0C20CDE9000469461548FEF736FAD5
:101EC00008B1FEF732FA0D20009008200190694613
:101ED0000F48FEF72BFA08B1FEF727FA1020009002
:101EE0000920019069460A48FEF720FA08B1FEF77A
:101EF0001CFA1120CDE9000669460548FEF716FADE
:101F0000002801D0FEF711FAFEBD000000240140B8
:101F1000A00000201CB50024104900940E48019434
:101F200008600846FEF78FFB08B1FEF7FEF9009443
:101F30000022694609480194FEF75EFB08B1FEF7EE
:101F4000F4F9102269460548FEF756FB002801D037
:101F5000FEF7EBF91CBD00000074004014010020E6
:101F60002D4808B5416941F001014161416901F025
:101F700001010091416941F0020141614069002283
:101F800000F00200009005210B20FEF725FF0B203A
:101F9000FEF714FF002205210C20FEF71DFF0C2088
:101FA000FEF70CFF002205210D20FEF715FF0D2086
:101FB000FEF704FF002205210E20FEF70DFF0E2084
:101FC000FEF7FCFE002205210F20FEF705FF0F2083
:101FD000FEF7F4FE002205211020FEF7FDFE102082
:101FE000FEF7ECFE002205211120FEF7F5FE112080
:101FF000FEF7E4FE002205213A20FEF7EDFE3A202E
:10200000FEF7DCFE002205213B20FEF7E5FEBDE8E1
:1020100008403B20FEF7D2BE0010024010B5A4B02D
:10202000142227496846FEF7EBF80021684600F0C5
:10203000C8FC244C224914222060143105A8FEF764
:10204000DFF8002105A800F0BCFC1D4960601422E7
:1020500028310AA8FEF7D4F800210AA800F0B1FC44
:102060001749A06014223C310FA8FEF7C9F80021DF
:102070000FA800F0A6FC1249E0601422503114A809
:10208000FEF7BEF8002114A800F09BFC0C4920616B
:102090001422643119A8FEF7B3F8002119A800F042
:1020A00090FC07496061142278311EA8FEF7A8F859
:1020B00000211EA800F085FCA06124B010BD000026
:1020C000F03E0008000000202DE9F04F85B000250B
:1020D00049480095019502950395816941F04001B9
:1020E0008161816901F040010491816941F0100131
:1020F0008161816901F010010491816941F004015D
:102100008161816901F004010491816941F0080154
:102110008161816901F008010491816941F0200128
:1021200081618069DFF8D4B000F0200004900022C3
:102130003C215846FEF7BEFD4EF280480022414643
:102140002F48FEF7B7FD4FF49E59002249462D480F
:10215000FEF7B0FD4FF4106A002251462A48FEF700
:10216000A9FD002280212948FEF7A4FD3C20009013
:1021700001260224CDE90164694658460394FEF71E
:102180009DFC3020CDE90005694602941D48FEF70C
:1021900095FC0720CDE90005694602941B48FEF72F
:1021A0008DFC80270097CDE9015469465846FEF71B
:1021B00085FCCDE90254CDE9008669461048FEF75A
:1021C0007DFCCDE90254CDE9009669460D48FEF745
:1021D00075FCCDE90254CDE900A669460A48FEF730
:1021E0006DFCCDE90254CDE9007669460748FEF75B
:1021F00065FC05B0BDE8F08F0010024000180140FA
:10220000001401400010014000080140000C014092
:1022100010B58EB000240794089409940A940B9486
:102220001C2168460C94FEF704F82A484FF08041C0
:1022300001603B21C0E901144FF47A71C0E9031435
:102240008461FFF730F908B1FEF76FF84FF4805062
:10225000079007A91F48FFF764F908B1FEF765F872
:102260001C48FFF728FB08B1FEF75FF80B940BA999
:1022700018480C94FFF7F6F808B1FEF756F86020FE
:10228000CDE900040220029000226946049411481E
:10229000FFF7A9FA08B1FEF748F8042269460D488D
:1022A000FFF7A1FA08B1FEF740F80822694609488D
:1022B000FFF799FA08B1FEF738F80C22694605488D
:1022C000FFF791FA08B1FEF730F80248FFF748FA35
:1022D0000EB010BD280100200C4810B50A4901605D
:1022E0004FF4E1314160002181600C22C160C0E9FE
:1022F00004128161C161FFF78FFB002803D0BDE8A4
:102300001040FEF712B810BD004C004068010020DC
:102310000C4810B50A4901604FF4E13141600021D9
:1023200081600C22C160C0E904128161C161FFF7C4
:1023300073FB002803D0BDE81040FDF7F6BF10BDC9
:1023400000380140A80100200C4810B50A4901607E
:102350004FF4E1314160002181600C22C160C0E98D
:1023600004128161C161FFF757FB002803D0BDE86B
:102370001040FDF7DABF10BD00440040E801002026
:102380000C4810B50A4901604FF416514160002114
:1023900081600C22C160C0E904128161C161FFF754
:1023A0003BFB002803D0BDE81040FDF7BEBF10BDC9
:1023B0000048004028020020FEE7704710B550207A
:1023C00080F31188BFF34F8FBFF36F8F01F0F0FBE5
:1023D00018B104494FF080500860002080F3118844
:1023E00010BD000004ED00E030B595B0282168462E
:1023F000FDF71FFF14210AA8FDF71BFF18210FA8E6
:10240000FDF717FF0224012004900094102005908E
:1024100000254FF45010CDE9085007946846FEF7A8
:102420008FFE0AA90F2081E831006002CDE90D0579
:1024300002210AA8FEF778FDA00311900F940FA8BF
:10244000FEF7FCFC15B030BD0D48016841F00101FC
:10245000016041680B4A1140416001680A4A11401D
:102460000160016821F480210160416821F4FE01CE
:1024700041604FF41F0181600449C0030860704748
:10248000001002400000FFF8FFFFF6FE08ED00E03C
:102490000148FFF7B2B8000088040020F0B50268D8
:1024A0001C4B1D4D1D4E1E4F1E4C4FF0804C984234
:1024B00009D0A04207D0604505D0A84203D0B04261
:1024C00001D0B84204D122F0700E4A6842EA0E02EE
:1024D000984209D0A04207D0604505D0A84203D059
:1024E000B04201D0B84203D122F44075CA682A43F1
:1024F0004D6922F080022A4302608A68C2620A683B
:102500008262984201D0A04201D109690163012190
:102510004161F0BD002C0140000400400008004073
:10252000000C00400034014010B5846842EA0322E8
:1025300024F47F440A432243826010BD826822F063
:1025400070020A4342F0070181607047F0B5026AE9
:1025500022F001020262036A42688469124E24F08A
:1025600073050C682C4323F002058B682B430D4D3B
:10257000A84201D0B04205D123F00807CB683B4305
:1025800023F00403A84201D0B04205D14D6922F4E2
:10259000407215438A692A434260846149684163F5
:1025A0000362F0BD002C014000340140F0B5026A26
:1025B00022F010020262026A436884690D6824F402
:1025C000E64444EA05248D6822F0200242EA05121E
:1025D0000F4D104EA84201D0B04206D1CF6822F074
:1025E000800242EA071222F04002A84201D0B04223
:1025F00007D14D6923F4406343EA85038D6943EABB
:10260000850343608461496881630262F0BD000014
:10261000002C014000340140F0B5026A22F48072BF
:102620000262026A4368C46922F4007224F07305EE
:102630000C68124E2C438D6842EA05220E4DA842CA
:1026400001D0B04206D1CF6822F4006242EA0722EC
:1026500022F48062A84201D0B04207D14D6923F430
:10266000405343EA05138D6943EA05134360C4618F
:102670004968C1630262F0BD002C01400034014092
:1026800030B5026A22F480520262046A4268C36969
:102690000D6823F4E64343EA05238D6824F40054CF
:1026A00044EA0534084DA84202D0084DA84204D19E
:1026B0004D6922F4804242EA85124260C361496852
:1026C0000164046230BD0000002C01400034014070
:1026D00010B5036A046A24F001040462846924F0DA
:1026E000F00444EA021423F00A020A4384610262FD
:1026F00010BD10B5036A23F0100303628369046AF6
:1027000023F4704343EA023224F0A00343EA0111A8
:102710008261016210BD00000148FFF7F5B80000BA
:102720006801002010B5406A0021C185C184FFF70F
:10273000EAF810BD0168CA6822F49072CA600168A4
:102740004A6922F001024A61202180F83A1070475C
:1027500010B590F83A10222901D0022010BD8168EE
:10276000B1F5805F11D00169002901681FD0496867
:1027700001F07F03816A4A1C82620B70C18D491E81
:102780000904090CC18518D02BE00269816A002A6E
:102790000268526805D0D2B20A80816A491C8162FF
:1027A000ECE7C2F308020A80816A891CF7E74A68ED
:1027B000816A4B1C83620A70E0E70168CA6822F0F4
:1027C0002002CA600168CA6822F48072CA60016887
:1027D0004A6922F001024A61202180F83A10FFF78D
:1027E0000FFB002010BD00002DE9F04104460068F9
:1027F0000169E26821F44051114301612169A06837
:102800000843616908432168CA6841F20C639A432E
:102810000243CA6020684169A26921F440711143F2
:1028200041611E49206864253226884202D1FEF7A4
:1028300041FC01E0FEF72EFC00EBC00101EB0011B2
:1028400060686FF018078000B1FBF0F2B2FBF5F2A0
:10285000B1FBF0F37A4303EB8202B1FBF0F306EB3A
:102860000212B2FBF5F2B3FBF5F302F0F00202EB59
:102870000312B1FBF0F3B1FBF0F0B0FBF5F07843DD
:1028800003EB800006EB0010B0FBF5F0216800F0D0
:102890000F0010448860BDE8F0810000003801405E
:1028A00090F83910212901D0022070478168B1F5D4
:1028B000805F016A0BD04A1C02620268097851608D
:1028C000C18C491E0904090CC1840ED017E0098887
:1028D0000268C1F30801516001690029016A02D050
:1028E000491C0162ECE7891CFBE70168CA6822F019
:1028F0008002CA600068C16841F04001C1600020E8
:10290000704700000148FEF7FFBF0000A80100204B
:102910000148FEF7F9BF0000E80100200148FEF77A
:10292000F3BF000028020020FEE70907090E002877
:1029300004DB00F1E02080F80014704700F00F0085
:1029400000F1E02080F8141D704702E008C8121F53
:1029500008C1002AFAD170477047002001E001C188
:10296000121F002AFBD17047FEF7B8F9FFF73CFDB4
:10297000FFF7AAFBFFF7F4FAFFF746FAFFF7CAFAE8
:10298000FFF746FCFFF7A8FCFFF7C2FCFFF7DCFCF3
:10299000FFF7F6FCFFF742FB00F00EF8FEE70146FA
:1029A0000020842900D0C81C704710B500B9012050
:1029B00000F048FD002010BD10B500F0ABFD002078
:1029C00010BD3EB504460D46B0F90800FFF7E7FF1D
:1029D00002A9CDE90001208A2B4682B2D4E9001079
:1029E00001F0A6F8012801D000203EBD02983EBDAE
:1029F0002DE9F041184C0F46054666692068001D18
:102A000000F006FC38B9206890F82C1001208840AE
:102A1000A1698143A161681C07D137B12168BDE874
:102A2000F0410E48091D00F02CBC20683544B54229
:102A30004560216805D2A068BDE8F041091D00F09D
:102A400008BC6068091D00F004FC206B854200D2C0
:102A50002563BDE8F08100002C000020E405002083
:102A60002DE9F041054600F019FC2E4C2069401C70
:102A7000206120682C4F10B1E06940B32DE0256043
:102A80002069012829D1002606EB860007EB80008B
:102A900000F0D1FB761C072EF6D323488C3000F0D3
:102AA000CAFB2148A03000F0C6FB1F48B43000F03C
:102AB000C2FB1D48C83000F0BEFB1B48DC3000F0F4
:102AC000BAFB19488C3060601430A06005E02068C3
:102AD000E96AC06A884200D82560E06A401CE0626A
:102AE000E96A0120A26988401043A06101EB8100DE
:102AF00007EB8000291D00F0C4FB00F0EFFBE0694C
:102B000000280CD02068E96AC06A884207D20749C9
:102B10004FF080500860BFF34F8FBFF36F8FBDE859
:102B2000F08100002C0000200805002004ED00E0EA
:102B300010B500F0B3FB0E4CA068A0B90D4800F032
:102B40007AFB0C48143000F076FB0A482060143001
:102B5000606000220C210A2000F09EFDA06010B1F0
:102B600005A100F039FCBDE8104000F0B7BB000043
:102B700068000020F8050020546D7251000000002C
:102B800030B4026C0B46002A0BD0C1681144C160FE
:102B90004468A14201D30168C16030BC1846FDF70A
:102BA0002FBB30BC70472DE9F041856B17460446BA
:102BB0000026026C82B1C7B1E068FDF721FBE16835
:102BC000206C091AE1602268914202D26168081AF9
:102BD000E060022F16D017E02068A8B9606801F005
:102BE0004BF80646002060600EE0A068FDF708FB89
:102BF000216CA0680844A0606168884204D3206802
:102C0000A06001E005B16D1E6D1CA5633046BDE8F6
:102C1000F08110B50446006B00F074FB2046BDE85F
:102C2000104000F06FBB000010484FF4A041420775
:102C300006D0C01D0D4920F00700411AC1F5A04182
:102C40000B4A00230144C2E900030839103A21F07D
:102C5000070111604B600B600B1AC0E90013936011
:102C60004FF000405360D060704700002006002005
:102C70008C000020144E154CA6F1C8074FF0805868
:102C8000DFF84C9012E000BF00F008FBF068C56868
:102C9000281D00F0BDFA2069401E2061E068401E3A
:102CA000E06000F01BFB2846FFF7B3FFE068002858
:102CB000EAD138680128F9D9C9F80080BFF34F8FED
:102CC000BFF36F8FF2E70000D00500202C0000203A
:102CD00004ED00E02DE9F0479A46DDE909848146DC
:102CE0006FF00303206B03EB82021044089D20F079
:102CF0000706700707D0502080F31188BFF34F8F6D
:102D0000BFF36F8FFEE723180A5C83F834200A5C58
:102D100012B1401C1028F6D3002784F84370072D09
:102D200000D30625E562C4E91157201D00F08EFA94
:102D300004F1180000F08AFA2461C5F1070064620A
:102D4000A061E76484F8507052464946304600F06E
:102D500031FA2060B8F1000F01D0C8F80040BDE89A
:102D6000F087000030B5114900E011460A68824240
:102D7000FBD34B685C18844203D140681844486018
:102D8000084643681C18944209D1084C103C24683A
:102D9000A24209D052681A4442600A68126802606E
:102DA000814200D0086030BD0460F9E78C0000204B
:102DB00070B5002441600B4D0061914206D8D11AD4
:102DC0008269914206D2011D686807E09A4203D2E7
:102DD000994201D3012403E0011D286800F039FA6B
:102DE000204670BD6800002010B5044600F056FA79
:102DF000A06B28B15FF0000400F070FA204610BD0F
:102E00000124F9E730B587B02B4D4BE0049800283A
:102E100048DB069C606910B1201D00F0F9F902A89A
:102E200000F0B6F8024604980A283BD2DFE800F02A
:102E30000505053A263705053A260598A169034692
:102E400001442046FFF7B4FF00B3616A204688477B
:102E5000E069012826D1002000900598A16900238F
:102E600042181946204601F013F878B9502080F333
:102E70001188BFF34F8FBFF36F8FFEE70598A061F6
:102E800028B1811813462046FFF792FF0AE0502030
:102E900080F31188BFF34F8FBFF36F8FFEE720469B
:102EA00000F030FA002204A9A86800F06BFD0028A9
:102EB000ACD107B030BD0000680000202DE9FC4116
:102EC0000F46054600F05EFB01A800F061F80446DD
:102ED000019818B100F056FFBDE8FC81224EAFB159
:102EE00070680068A8B30027291B3A46B06800F054
:102EF00087FA00F047FF0028EED11C494FF08050C0
:102F00000860BFF34F8FBFF36F8FE5E7A542EBD8A3
:102F100000F038FF30682746C068C468201D00F004
:102F200077F9E069012810D1A0692B4641193A468A
:102F30002046FFF73DFF40B10020034601460090C8
:102F40002A46204600F0A4FF20B1616A2046884747
:102F5000C2E707E0502080F31188BFF34F8FBFF323
:102F60006F8FFEE70127BFE76800002004ED00E057
:102F700006484168096829B14168C968C968496853
:102F8000016370474FF0FF31FAE700002C0000208A
:102F900070B5054600F006FE064E044630698442D0
:102FA00003D200F009F8012000E00020286020464C
:102FB000346170BD68000020F8B5194D1FE0C0688D
:102FC000C4680668201D00F023F9616A204688471E
:102FD000E069012813D1A0693044B04206D92461C8
:102FE0006060211D286800F034F908E000200346E5
:102FF000014600903246204600F04AFF38B128686A
:1030000001680029DBD16968C5E90010F8BD5020CE
:1030100080F31188BFF34F8FBFF36F8FFEE700007F
:103020006800002008484068401C4FF0500080F3C2
:10303000118804D0BFF34F8FBFF36F8FFEE7BFF34C
:103040004F8FBFF36F8FFEE794000020074C20687E
:10305000016841B1C0680021D0F80000FFF72EFFE1
:10306000FFF7D0FEF3E701210020F7E7680000201A
:103070002DE9F041044600F011F994F9455004F1AE
:10308000240609E0606A48B1304600F041FE08B10C
:1030900000F006FA6D1E6DB2002DF3DC4FF0FF3626
:1030A00084F8456000F01AF900F0F8F894F94450FB
:1030B00004F1100709E0206948B1384600F028FE05
:1030C00008B100F0EDF96D1E6DB2002DF3DC84F84F
:1030D0004460BDE8F04100F001B900002DE9F04185
:1030E0000546002700F04EFA314E306808B9FFF768
:1030F0009BFDF06805424BD1C5B3083568070ED07B
:1031000005F00700C0F108000544680707D050200B
:1031100080F31188BFF34F8FBFF36F8FFEE72DB39E
:103120007068854234D82248103001460C6801E0AE
:1031300020460C466168A94202D221680029F7D1D5
:1031400031688C4224D007682168016060680837C4
:10315000411B10290FD96019420708D0502080F375
:103160001188BFF34F8FBFF36F8FFEE710E0416010
:103170006560FFF7F7FD61687068401A7060B268BB
:10318000904200D2B060F06801430020C4E9000121
:1031900000F0F8FD780707D0502080F31188BFF3C6
:1031A0004F8FBFF36F8FFEE73846BDE8F081000018
:1031B0007C00002010B5031F4FF080741C601B1FA3
:1031C00021F001011960191F024B0B6014394038BE
:1031D0000A6010BD253000080120FFF7E6FBFBE781
:1031E0000120FFF7E2FBFBE70120FFF7DEFBFBE737
:1031F0000120FFF7DAFBFBE70120FFF7D6FBFBE737
:103200000120FFF7D2FBFBE70120FFF7CEFBFBE736
:10321000D0E9013201699A60D0E901235A604A6815
:10322000824201D182684A60002202610868401E21
:1032300008600868704700F108014FF0FF32C0E9EC
:103240000112C1600161002101607047002101612C
:10325000704730B50B685A1C02D000F1080202E03A
:10326000026904E02246546825689D42FAD95368F1
:103270004B6099608A60516008610168491C016077
:1032800030BD42684A6093688B6093685960916072
:1032900008610168491C016070470000502080F3FC
:1032A0001188BFF34F8FBFF36F8F0A494868401CE6
:1032B000486001280CD10848006810F0FF0F07D0C3
:1032C000502080F31188BFF34F8FBFF36F8FFEE75D
:1032D000704700009400002004ED00E008494868B1
:1032E00028B1401E486001D180F3118870475020FA
:1032F00080F31188BFF34F8FBFF36F8FFEE700009D
:103300009400002070B5002827D0144DA0F10804C7
:103310006168E868014207D1502080F31188BFF34B
:103320004F8FBFF36F8FFEE722683AB1502080F3D2
:103330001188BFF34F8FBFF36F8FFEE7814361604A
:1033400000F020F960686968084468602046FFF76B
:1033500009FDBDE8704000F015BD70BD7C00002087
:103360004FF0E02000210161816105494FF47A723C
:103370000968B1FBF2F1491E416107210161704703
:103380002800002010B5FCF725FF114910280ED3A6
:1033900000F1E02090F8F0030A78904207D2502024
:1033A00080F31188BFF34F8FBFF36F8FFEE709489B
:1033B0000068896800F4E060884207D9502080F3F3
:1033C0001188BFF34F8FBFF36F8FFEE710BD000072
:1033D000940000200CED00E010B5084B002200BF67
:1033E00053F832401CB1521C082AF9D310BD43F8DF
:1033F000321003EBC201486010BD0000C804002079
:1034000070B515460E460446FFF748FF94F9441080
:103410000020491C01D184F8440094F94510491C4E
:1034200001D184F84500FFF759FFA06B28B92A465F
:10343000314604F1240000F051F82046BDE8704008
:10344000FFF716BE10B5020014D00F48806B38B1DC
:10345000502080F31188BFF34F8FBFF36F8FFEE7CB
:1034600000F090F800211046FFF7C2FA00F08AFC45
:10347000002807D105494FF080500860BFF34F8FF7
:10348000BFF36F8F10BD00002C00002004ED00E0A2
:1034900002498A6A02604969416070472C00002035
:1034A00001490120486270472C00002010B50C46ED
:1034B00050B1094909681831FFF7CBFE2046BDE835
:1034C00010400121FFF794BA502080F31188BFF318
:1034D0004F8FBFF36F8FFEE72C00002070B51446AE
:1034E0000D4668B10A4909681831FFF7CAFE0CB1E8
:1034F0004FF0FF3521462846BDE87040FFF778BA07
:10350000502080F31188BFF34F8FBFF36F8FFEE71A
:103510002C0000201CB517480024CDE900402346AC
:10352000802215A1164800F003FB012803D100F00A
:103530008BFC012809D0401C1AD1502080F311883F
:10354000BFF34F8FBFF36F8FFEE7502080F31188DA
:10355000BFF34F8FBFF36F8F06484FF0FF31343802
:1035600001630121C1614461BDE81C4000F040B825
:103570001CBD00006000002049444C4500000000D4
:10358000752C00080248816B491C8163704700005C
:103590002C0000201448816B11B101214162704759
:1035A000002141628169B1FA81F1C1F11F0101EB92
:1035B00081020E4951F822306BB101EB820101F119
:1035C00008034A6852684A609A4201D152684A60C8
:1035D000D16801607047502080F31188BFF34F8F8E
:1035E000BFF36F8FFEE700002C00002008050020CD
:1035F0001CB5264908780190FF20087008788DF8DE
:1036000000009DF800009DF8002000F0F0009042BE
:1036100007D0502080F31188BFF34F8FBFF36F8F17
:10362000FEE79DF800001A4B00F0500018700720CC
:10363000986005E09DF8002052008DF80020401EA3
:103640009DF800201206F5D49860032807D050207A
:1036500080F31188BFF34F8FBFF36F8FFEE74FF4F6
:1036600040709860019808700A48016841F4700140
:103670000160016841F070410160FFF771FE0020B8
:103680005860FCF771FD00201CBD000000E400E064
:103690009400002020ED00E070B50E46050013D028
:1036A000D6B105FB06F04830FFF718FD040009D03D
:1036B00004F1480120468EB10160C0E90F56012196
:1036C00000F00EF8204670BD502080F31188BFF343
:1036D0004F8FBFF36F8FFEE70020E4E70060ECE759
:1036E00070B50D46040025D0FFF7D8FDD4E90F20B2
:1036F000216802FB001161600021A1632168A160C3
:103700000A46D4E90F01401E00FB0121E160214679
:103710004FF0FF3001F8440F487004F110008DB1F4
:10372000FFF789FD04F12400FFF785FDFFF7D6FDC3
:10373000012070BD502080F31188BFF34F8FBFF37D
:103740006F8FFEE721690029F0D000F0E1FA002830
:10375000ECD004494FF080500860BFF34F8FBFF3A7
:103760006F8FE3E704ED00E02DE9FF4782B01D46CF
:103770008A464FF00008040003D0BAF1000F08D0C9
:1037800011E0502080F31188BFF34F8FBFF36F8F8C
:10379000FEE7206C38B1502080F31188BFF34F8FC3
:1037A000BFF36F8FFEE7022D0AD1E06B012807D02F
:1037B000502080F31188BFF34F8FBFF36F8FFEE768
:1037C00000F0E2F93F4F4FF000094FF0805648B942
:1037D000049838B1502080F31188BFF34F8FBFF3A6
:1037E0006F8FFEE7FFF75AFDA06BE16B884207D3AE
:1037F000022D05D00498D0B1B8F1000F1AD01EE008
:103800002A4651462046FFF7CEF9616A19B104F104
:10381000240000F07DFA20B13E60BFF34F8FBFF36C
:103820006F8FFFF75BFD012006B0BDE8F087FFF763
:1038300055FD22E06846FFF72BFE4FF00108FFF729
:103840004DFDFFF79FFEFFF729FD94F94400401C52
:1038500001D184F8449094F94500401C01D184F8CA
:103860004590FFF73BFD04A9684600F027F930B109
:103870002046FFF7FDFB00F085FA0020D4E7FFF7B4
:103880000DFDA06BE16B884213D1FFF727FD04F11A
:1038900010000499FFF70AFE2046FFF7E9FB00F04D
:1038A00071FA00289ED13E60BFF34F8FBFF36F8F38
:1038B00098E7FFF713FD2046FFF7DAFB00F062FA06
:1038C00090E7000004ED00E02DE9F0471F46904628
:1038D0008946040003D0B9F1000F08D011E0502050
:1038E00080F31188BFF34F8FBFF36F8FFEE7206C1B
:1038F00038B1502080F31188BFF34F8FBFF36F8F23
:10390000FEE7022F0AD1E06B012807D0502080F398
:103910001188BFF34F8FBFF36F8FFEE7FFF732FDC4
:103920005020EFF3118680F31188BFF34F8FBFF360
:103930006F8FA06BE16B884206D3022F04D000206A
:1039400086F31188BDE8F08794F945503A46494618
:103950002046FFF728F9681C04D06D1C84F84550F8
:103960000120EDE7606A0028FAD004F1240000F09D
:10397000CFF90028F4D0B8F1000FF1D00121C8F838
:103980000010EDE72DE9F747002683B08A460400D2
:1039900003D0BAF1000F08D011E0502080F3118855
:1039A000BFF34F8FBFF36F8FFEE7206C38B150200D
:1039B00080F31188BFF34F8FBFF36F8FFEE700F0E6
:1039C000E3F8DFF8F4804FF000094FF0805748B972
:1039D000059838B1502080F31188BFF34F8FBFF3A3
:1039E0006F8FFEE7FFF75AFCA56BC5B15146204625
:1039F000FFF7C6F86D1EA563206950B104F11000F1
:103A000000F086F928B1C8F80070BFF34F8FBFF3FC
:103A10006F8FFFF763FC012006B0BDE8F0870598C3
:103A200008B11EB106E0FFF759FC27E06846FFF732
:103A30002FFD0126FFF752FCFFF7A4FDFFF72EFC38
:103A400094F94400401C01D184F8449094F9450055
:103A5000401C01D184F84590FFF740FC05A9684659
:103A600000F02CF8002820460AD0FFF701FB00F0F8
:103A700089F92046FFF7B8F90028B3D00020CBE73A
:103A8000FFF7B2F990B104F124000599FFF70EFD9C
:103A90002046FFF7EDFA00F075F90028A2D1C8F82A
:103AA0000070BFF34F8FBFF36F8F9BE72046FFF788
:103AB000DFFA00F067F995E704ED00E02DE9F04149
:103AC0000C46050011D0C4B1FFF7E8FB174B5A694B
:103AD0006E682068911B471C17D02F689B6A9F4215
:103AE00019D0964217D8012410E0502080F3118895
:103AF000BFF34F8FBFF36F8FFEE7502080F3118825
:103B0000BFF34F8FBFF36F8FFEE70024FFF7E6FB95
:103B10002046BDE8F081884205D9401A2060284639
:103B2000FFF7B6FCF1E700202060DCE72C00002066
:103B30002DE9FF5F8346DDE90E87994616468A46E2
:103B40009000FFF7CBFA05001AD05420FFF7C6FA11
:103B5000040012D025630021CDE90241CDE90087A0
:103B60004B46324651465846FFF7B4F82046FEF71A
:103B700077FF012004B0BDE8F09F2846FFF7C2FBA5
:103B80004FF0FF30F6E700000548C16919B1806BBE
:103B900018B10020704701207047022070470000D4
:103BA0002C00002001484069704700002C000020D4
:103BB0002DE9F0412E4C0027A06B40B1206A401C3B
:103BC0002062606A00B101273846BDE8F08166696D
:103BD000761C666113D16068006838B1502080F3AC
:103BE0001188BFF34F8FBFF36F8FFEE76068A16846
:103BF0006160A060A06A401CA062FFF7B9F9206B69
:103C0000DFF87080864209D36068006880B1606820
:103C1000C068C568686886420DD220632068C06AA3
:103C200000EB800158F821000128CAD90127C8E714
:103C30004FF0FF30F1E7281DFFF7EAFAA86A18B144
:103C400005F11800FFF7E4FAE86A0121A269814052
:103C50001143A16100EB800108EB8100291DFFF7F2
:103C600010FBE86A2168C96A8842CDD30127CBE7F7
:103C70002C0000200805002070B504004FF0000162
:103C800040D0214D2868844207D0502080F311880D
:103C9000BFF34F8FBFF36F8FFEE7A06C38B1401EAC
:103CA000A064636CE26A9A422CD040B12AE05020B2
:103CB00080F31188BFF34F8FBFF36F8FFEE7201D96
:103CC000FFF7A6FA114A012150B9E06A00EB800320
:103CD00052F8233023B9AB6901FA00F08343AB619A
:103CE000606CE062C0F10700A061E06AAB698140EE
:103CF0001943A96100EB800002EB8000211DFFF752
:103D0000C0FA0121084670BD2C00002008050020E3
:103D10002DE9F041C068C468ACB104F11800074651
:103D2000FFF776FA154DA86B0126A0B13946144865
:103D3000FFF7A7FAE06A2968C96A88421CD90120FE
:103D40006E62BDE8F081502080F31188BFF34F8F81
:103D5000BFF36F8FFEE7201DFFF75AFAE16AAA69E9
:103D600006FA01F01043A86101EB81000449B4395F
:103D700001EB8000211DDBE70020E2E72C000020A2
:103D8000BC0500202DE9F0472C4D00242746A86BE8
:103D900038B1FFF783FAA86B401EA863A86B40B147
:103DA00046E0502080F31188BFF34F8FBFF36F8F31
:103DB000FEE72969224E0120D1B3A6F1B40980465D
:103DC0003068E8B1F068C46804F11800FFF720FA21
:103DD000201DFFF71DFAE06AAA6908FA00F11143F5
:103DE000A96100EB800109EB8100211DFFF749FA71
:103DF000E06A2968C96A8842E2D3C5F82480DFE70F
:103E00000CB1FFF7B5F82C6A44B14646FFF7D0FE77
:103E100000B16E62641EF9D100202862686A38B170
:103E20000849012738070860BFF34F8FBFF36F8F32
:103E3000FFF754FA3846BDE8F08700002C00002058
:103E4000BC05002004ED00E01CB5FEF771FE0C4837
:103E5000806860B10A4902200C31CDE90001C2013D
:103E6000002308A10948FFF763FE002807D150206E
:103E700080F31188BFF34F8FBFF36F8FFEE71CBD38
:103E800068000020546D7220537663004D300008A6
:103E9000FEB51E4613460200089D4FF0000014D0E8
:103EA000124CA768002F0FD0CDE90013029206290B
:103EB00015DAFFF769FE02284FF000030DD000224B
:103EC0006946A068FFF750FCFEBD502080F31188C2
:103ED000BFF34F8FBFF36F8FFEE72A46F0E7002353
:103EE000324669463846FFF7EFFCFEBD6800002009
:103EF000943F0008D93100080100000000000000D4
:103F0000000100009C3F0008E131000801000000B2
:103F10000000000000010000A43F0008E931000893
:103F2000000000000000000000010000AC3F00089D
:103F3000F131000800000000000000000001000056
:103F4000B43F0008F9310008FFFF00000000000046
:103F500080000000BC3F000801320008FFFF0000A5
:103F60000000000080000000C43F00080932000883
:103F7000FEFF0000000000008000000000000000C4
:103F80000000000001020304060708090000000009
:103F9000010203047461736B303100007461736B50
:103FA000303200007461736B303300007461736BE6
:103FB000303400007461736B303500007461736BD2
:103FC000303600007461736B30370000EC3F00083E
:103FD00000000020A00000004A2900088C400008D2
:103FE000A0000020805D00005A29000800000000A9
:103FF00000000000000000000000000000000000C1
:10400000000000000000000001000000100000009F
:10401000000000000024F400000000000000000088
:104020000000000000000000000000000000000090
:104030000000000000000000000000000000000080
:104040000000000000000000000000000000000070
:104050000000000000000000000000000000000060
:104060000000000000000000000000000000000050
:104070000000000000000000000000000000000040
:0C40800000000000AAAAAAAA000000008C
:0400000508000131BD
:00000001FF
