:020000040800F2
:1000000080740020DD0100086B310008B72B000868
:100010006931000849080008FD37000800000000A9
:100020000000000000000000000000004501000882
:100030005B0A000800000000890100086D3100081B
:10004000F7010008F7010008F7010008F7010008B0
:10005000F7010008F7010008F7010008F7010008A0
:10006000F7010008F7010008F7010008C5090008BA
:10007000D1090008DD090008E9090008F5090008B0
:10008000010A00080D0A0008F7010008F70100083E
:10009000F7010008F7010008F7010008F701000860
:1000A000F7010008F7010008F7010008F701000850
:1000B000F7010008F7010008F7010008F701000840
:1000C000F7010008F7010008F7010008F701000830
:1000D000F7010008A9370008C5370008E137000814
:1000E000F7010008F7010008F7010008F701000810
:1000F00041320008F7010008F7010008F701000885
:10010000F7010008F7010008F7010008F7010008EF
:10011000E5340008F7010008F7010008F7010008BE
:10012000F7010008F7010008190A0008250A00086D
:10013000DFF80CD000F0DEFA00480047953E0008DA
:1001400080740020224B19680868B0E8F00F80F333
:100150000988BFF36F8F4FF0000080F311884EF0D5
:100160000D0E70470000000006480068006880F32C
:10017000088862B661B6BFF34F8FBFF36F8F00DFA1
:1001800000BF00BF08ED00E0EFF30980BFF36F8F01
:100190000F4B1A6820E9F00F106008B54FF05000BF
:1001A00080F31188BFF34F8FBFF36F8F05F066FBAD
:1001B0004FF0000080F31188BDE808401968086816
:1001C000B0E8F00F80F30988BFF36F8F704700BF6E
:1001D0002C000020EFF305807047000006488047A0
:1001E00006480047FEE7FEE7FEE7FEE7FEE7FEE71C
:1001F000FEE7FEE7FEE7FEE7F931000831010008FF
:10020000202A04DB203A21FA02F00021704721FA6B
:1002100002F3D040C2F120029140084319467047D2
:1002200040EA01039B0703D009E008C9121F08C078
:10023000042AFAD203E011F8013B00F8013B521EF8
:10024000F9D27047D2B201E000F8012B491EFBD26F
:1002500070470022F6E710B513460A4604461946D1
:10026000FFF7F0FF204610BD2DE9FE4F804681EAE2
:100270000300C00F0C46009021F0004123F0004520
:10028000B8EB0200A94105D24046214690461C46E3
:100290000B46024623F00040104347D0270DC7F31A
:1002A0000A00C3F30A510290401A019040286BDA09
:1002B000C3F3130040F4801B0098924620B1002342
:1002C000D2EB030A63EB0B0B01985946C0F14002D5
:1002D000504600F059F906460D4650465946019AD7
:1002E00000F061F910EB08006141002487EA115227
:1002F00084EAE7731A4340D0009A62B3019A012A54
:100300004FEA075215DC001B61EB02014FF000427F
:1003100002EA0752CDE90042001C41F58011324645
:100320002B4600F098F903B0BDE8F08F4046214617
:10033000F9E7001B61EB0201001C41F58013001876
:100340005B412018A2F5001747EB030140EAD57086
:10035000B6196D4111E06D084FEA360645EAC075E1
:100360004FEA0752001B61EB0201001C41F58011AE
:1003700049084FEA30000019514132462B4603B07C
:10038000BDE8F04F00F058B900980122400000236A
:10039000D0EB020263EBE073009821464FEAE07471
:1003A000B8EB000061EB0401E9E783F000435BE791
:1003B00081F0004158E72DE9F04D81EA030404F093
:1003C000004B21F0004514464FF0000A23F0004195
:1003D00050EA050220D054EA01021DD0C5F30A57A5
:1003E0000246C5F31303C1F31300C1F30A5640F4E8
:1003F000801543F48013A7EB0608101BD64608F2BD
:10040000FD3873EB050002D308F1010801E09218F2
:100410005B41B8F1000F03DA00200146BDE8F08D22
:1004200000204FF48011064684460EE0171B73EB44
:10043000050705D3121B63EB050306434CEA010CC9
:1004400049084FEA300092185B4150EA0107EDD1AC
:1004500052EA030012D082EA040083EA050108434D
:1004600005D0101BAB4106D20122002306E000227A
:100470004FF0004302E06FF0010253101AEB060048
:100480004CEB085110EB0A0041EB0B01BDE8F04DBD
:1004900000F0D2B8C10F80EAE0700844CA07962382
:1004A000002100F09BB80EB5C10F80EAE07008444F
:1004B000CA07002140F233438DE80E000A460B467E
:1004C00000F0C9F803B000BD00F0004230F0004079
:1004D0000AD0C10D01F56071C0F3160042EA015166
:1004E000C2084007114370470020014670470000D2
:1004F00030B5041E71F1000404DB4FF000444042AB
:1005000064EB0101141E73F1000405DB1C464FF07F
:100510000043524263EB04038B4208BF824230BD6A
:1005200030B5041E71F1000404DB4FF0004440427A
:1005300064EB0101141E73F1000405DB1C464FF04F
:100540000043524263EB0403994208BF904230BD1E
:1005500001F0004330B421F0004150EA010206D01E
:100560000A0DA2F56072C1F31301002A02DC30BC4F
:1005700000207047440F44EAC104C100E01830BCB9
:1005800000EBC25000F021B8202A04DB203A00FA28
:1005900002F1002070479140C2F1200320FA03F3DA
:1005A000194390407047202A06DBCB17203A41FAC6
:1005B00002F043EAE07306E041FA02F3D040C2F1F0
:1005C000200291400843194670470029A8BF704790
:1005D000401C490008BF20F00100704710B4B0FA79
:1005E00080FC00FA0CF050EA010404BF10BC704714
:1005F00049B1CCF1200421FA04F411FA0CF118BF2E
:10060000012121430843A3EB0C01CB1D4FEA0061FC
:100610004FEA102042BF002010BC704700EBC350CF
:1006200010440029A4BF10BC7047401C490008BFFB
:1006300020F0010010BC704710B5141E73F10004C7
:1006400008DA401C41F1000192185B411A4301D1C4
:1006500020F0010010BD2DE9F04D92469B4611B1EE
:10066000B1FA81F202E0B0FA80F220329046FFF750
:100670008BFF04460F4640EA0A0041EA0B0153464D
:100680005A46084313D0114653EA010019D0C8F165
:1006900040025046FFF7B4FD05460E465046594607
:1006A0004246FFF771FF084305D0012004E02046D1
:1006B0003946BDE8F08D0020054346EAE0762C433C
:1006C00037430A986305E40AA0EB08000022FD0AFC
:1006D00044EA47540A3002D500200146E9E7010503
:1006E00010196941DDE9084500196941BDE8F04D7F
:1006F000A2E70000064C074D06E0E06840F0010369
:1007000094E8070098471034AC42F6D3FFF714FD85
:10071000506800087068000870B504460068816879
:10072000C943C9071CD1816821F00101816001F032
:1007300045F805460FE000BF01F040F8401B0228D5
:1007400009D9A06A40F01000A062E06A40F0010000
:10075000E062012070BD20688068C043C007EBD014
:10076000002070BD10B50146406A826A12F0500F39
:1007700005D0006A026BBDE8104008461047816A48
:1007800041F40071816201688968C1F3424107291F
:100790000CD1017B51B9816A21F480718162816A37
:1007A000C90403D4816A41F00101816200F094FA26
:1007B00010BD10B5406A816A41F040018162C16A92
:1007C00041F00401C16200F089FA10BD10B5406A21
:1007D00000F083FA10BD0000F8B50026044600962C
:1007E00000688168C943C90728D0816841F00101C8
:1007F0008160134813490068B0FBF1F000E0401E2F
:1008000000900028FBD100F0D9FF054611E000BFA1
:1008100000F0D4FF401B02280BD9A06A40F0100062
:10082000A062E06A40F00100E06284F824600120E8
:10083000F8BD20688068C043C007E9D10020F8BD3A
:100840002800002040420F00FEE710B500F06CF8D1
:10085000BDE8104003F032B810B52E4800F05AF948
:1008600064222D492B4800F023FB00212B4800F087
:100870001AFC40F6FF74002223461146274800F078
:1008800005FC1021254800F00EFC23460022102113
:10089000224800F0FBFB0021214801F011FE042159
:1008A0001F4801F00DFE08211D4801F009FE0C2132
:1008B0001B4801F005FE1B480021F022A0F800159E
:1008C000A0F80215A0F804250222A0F80625A0F839
:1008D0001415A0F81615A0F81825FA22A0F81A2564
:1008E0001423A0F81C35A0F81E25A0F82035A0F888
:1008F0004225B422A0F82A25A0F824154FF4FA7254
:10090000A0F83825A0F83A15A0F83C15A0F83E1537
:1009100010BD0000BC000020EC6A00203001002067
:1009200044010020EC62002010B502F087FF03F0C4
:1009300037F8BDE8104003F0A3B800002DE9F041FE
:100940001E4C0546002760881D4E854214D817E0CE
:100950002078012803D1642000F082F827702079E4
:10096000401C00F00700A0800A2000F079F86088A1
:10097000401C6080A6F8240360888542E8D818E00F
:1009800014D316E02078012803D1642000F068F821
:1009900027702079C01D00F00700A0800A2000F019
:1009A0005FF86088401E6080A6F824036088854256
:1009B000E8D301202070BDE8F0810000B4000020E1
:1009C000EC620020014800F057BC0000EC00002061
:1009D000014800F051BC000060040020014800F014
:1009E0004BBC00001C040020014800F045BC000086
:1009F00050030020014800F03FBC00000C03002021
:100A0000014800F039BC000094030020014800F0C8
:100A100033BC0000D8030020014800F02DBC0000CA
:100A200084020020014800F027BC0000C80200201A
:100A300030B590F840500124AC40C56B6C60046840
:100A400063604368102B036803D099600068C2603C
:100A500030BD9A600068C16030BD704770470000CB
:100A600070B52A4D0646A888F0B3012846D007285D
:100A700044D00022264C2021204600F09AFEA8886F
:100A800001283DD002283BD0032839D00022102174
:100A9000204600F08EFEA888032833D0042831D0E9
:100AA00005282FD000220821204600F082FEA888C9
:100AB000052829D0062827D0072825D00022042180
:100AC000204600F076FE304603F005FC002220218F
:100AD000204600F06EFE00221021204600F069FE44
:100AE00000220821204600E008E000F062FE2046D7
:100AF000BDE870400022042100F05BBE0122B9E78E
:100B00000122C4E70122CEE70122D8E7B400002089
:100B100000180140F8B500250446009590F824001F
:100B2000012808D0012084F824002046FFF7F4FDB6
:100B3000060002D04BE00220F8BDA06A20F48850E5
:100B400040F00200A062022000F0F6FE224909688F
:100B5000B1FBF0F0400000E0401E00900028FBD107
:100B60002046FFF739FE2068816841F00801816066
:100B700000F024FE074604E000F020FEC01B0A2817
:100B800011D8206880680007F6D42068816841F099
:100B90000401816000F012FE07460EE000F00EFE38
:100BA000C01B0A2809D9A06A20F0020040F01000FA
:100BB000A06284F824500120F8BD206880684007B6
:100BC000ECD4A06A20F0020040F00100A06284F89A
:100BD00024503046F8BD000028000020F8B500245D
:100BE000009490F824202546012A12D0012280F892
:100BF00024204A681F23072A0DD20668776B521EED
:100C000002EB820293409F430B6893401F4377633C
:100C100019E00220F8BD06680D2A0AD2376BD21FF0
:100C200002EB820293409F430B6893401F4337635C
:100C300009E0F76A0D3A02EB820293409F430B688A
:100C400093401F43F7620A68072306680A2A0AD3FB
:100C5000F7680A3A02EB420293409F438B68934045
:100C60001F43F76008E0376902EB420293409F435D
:100C70008B6893401F4337610A68102A01D0112AFC
:100C800020D1124B02689A4217D193681B0219D4E3
:100C9000936843F4000393600968102912D10C494A
:100CA0000C4A0968B1FBF2F101EB8101490000E057
:100CB000491E00910029FBD104E0816A41F0200126
:100CC0008162012480F824502046F8BD00240140B0
:100CD0002800002040420F00704770477047000016
:100CE0002DE9F04104004FF000057FD0A06A0026F6
:100CF00028B9E66284F82460204600F081F8204696
:100D0000FFF70AFDA16AC90600D420B1A06A40F02D
:100D10001000A0626AE0A16A21F4885141F002014A
:100D2000A162334923688B42E16904D1B1F5402FB8
:100D300001D14FF40021277B4FF4807C41EA470228
:100D400061680A43A168614508D0012906D00021E5
:100D500094F814E0BEF1010F02D00AE06146F7E713
:100D6000C7B1A76A47F02007A762E76A47F0010703
:100D7000E7625F6827F469470F435F6023689968FB
:100D80001C4F394011439960A16861450BD001297E
:100D900009D00CE0DFF860E0A7690EEB47370F439E
:100DA00047F40061E5E7218A0D05A5F58015216866
:100DB000CB6A23F470032B43CB62216889680F4B05
:100DC0001940914208D1E662A16A21F0020141F086
:100DD0000101A162BDE8F081A06A20F0020040F0AC
:100DE0001000A062E06A40F00100E0620120F1E73B
:100DF000003C0140FDF7E1FF00E0FFFFFE0E1FFF9A
:100E000070B586B0002506460095019502950395BC
:100E10000068214988423DD12049886940F400702A
:100E20008861886900F400700490886940F01000BF
:100E30008861886900F010000490886940F004001F
:100E400088618869032400F0040004900C20CDE937
:100E500000046946124800F0A9FBCF20CDE9000448
:100E60006946104800F0A2FB104C0F48C4E9000589
:100E70008020C4E902508000206180006061202051
:100E8000C4E90605204600F01BFB08B1FFF7E6FDAC
:100E90003462666206B070BD00240140001002405A
:100EA000001001400008014008000240EC00002052
:100EB0002DE9F047894604463B4900683B4F0E1D2B
:100EC0009046884201D0B84207D1306810F4702FA4
:100ED00003D001252846BDE8F08794F824000128B6
:100EE0000CD0012084F824002046FFF775FC050093
:100EF0004FF0000004D084F82400EBE70220EAE77A
:100F0000A16A40F60162914341F48071A1622168B7
:100F1000B94218D1326812F4702F14D0A16A41F48A
:100F20008011A1623168490505D5A16A21F40051FB
:100F300041F48051A162A16AC9040AD5E16A21F095
:100F40000601E16206E0A26A22F48012A262496808
:100F5000E9E7E06284F82400216A15488862216A82
:100F60001448C862216A1448086321686FF00200BF
:100F700008602068816841F480718160216843467F
:100F80004A464C31206A00F0D9FA20688168C1F3E2
:100F900042410729816803D041F48011816099E7BB
:100FA00041F4A001FAE700000024014000280140BC
:100FB00065070008CD070008B307000870B543793E
:100FC000012B20D001254571022303710668346886
:100FD00002F0100340F6FE729A409443D1E90021DA
:100FE0000A439A402243326002681468C021994043
:100FF0008C431460026813688B43136005710021F1
:101000004171084670BD022070BD70B5040003D068
:101010002079002510B105E0012070BD65712046E2
:1010200000F008F8022020712561012020710020C5
:1010300070BD000000B585B00021009101910291C2
:10104000039100680E49884218D10E48C16941F0E9
:101050000051C161C16901F000510491816941F001
:10106000040181618069694600F004000490302029
:10107000009003200190044800F098FA05B000BDEC
:1010800000740040001002400008014018B50468D8
:1010900000940068104421B11430009003600020D7
:1010A00018BD0830F9E770B54279012A1ED0012237
:1010B0004271022303710468266801F0100302FAEA
:1010C00003F52E4326600029016811D00C6804F452
:1010D00070153C249C40A54203D14B6843F00203A9
:1010E0004B60027100214171084670BD022070BD45
:1010F0000B68C3F383030F2BF3D14B6843F0010359
:10110000EEE710B590F821100022022905D0042145
:10111000816380F82020012010BD01680B6823F056
:101120000E030B6001680B6823F001030B6090F85D
:101130004030C46B012101FA03F3636080F8211091
:1011400080F82020104610BD2DE9F05F90F82110A6
:101150000024022903D004218163012485E0016871
:101160000A6822F00E020A6001680A6822F0010291
:101170000A603F4E3E4FB215DFF8F4C0DFF8F09042
:10118000DFF8ECA0DFF8E8B0DFF8E4E00168783FD2
:1011900013011502ACF1640CA9F15009AAF13C0A43
:1011A000ABF1280BAEF1140E4FF48018B14227D9E1
:1011B000B9420ED0614512D049451DD0514518D0D5
:1011C000594518D0714501D1424615E0294EB1422A
:1011D00001D1012210E0274E1436B14201D1102274
:1011E0000AE0244E2836B14206D0224A3C329142CF
:1011F00001D11A4600E02A461E49091F0A602BE069
:10120000B94213D0614517D0494522D051451DD070
:1012100059451DD0714501D142461AE0B14202D173
:101220004FF0807215E0134EB14201D1012210E05F
:10123000104E1436B14201D110220AE00D4E28366C
:10124000B14206D00B4A3C32914201D11A4600E02D
:101250002A46074980394A60012180F8211000217F
:1012600080F82010416B01B188472046BDE8F09F0F
:1012700080000240080402402DE9F05FC16B0A685B
:1012800001680B68046C4FF0040808FA04F8844DF8
:10129000844E854FDFF814C2DFF81492DFF814A2F1
:1012A000DFF814B2DFF814E218EA020F65D05FEA43
:1012B000437862D50A68920603D40A6822F00402D1
:1012C0000A60DFF8F0814FF48062016808F11408C9
:1012D00013011402414524D9A9420DD0B1420FD0C7
:1012E000B9421AD0614515D0494515D0514501D1B3
:1012F000120312E0594501D104220EE0714501D1DB
:1013000040220AE06D4D1435A94206D06B4A2832BE
:10131000914201D11A4600E022466749091F0A603E
:1013200029E0A94213D0B14215D0B94220D061457D
:101330001BD049451BD0514502D14FF4800217E024
:10134000414502D14FF0806212E0594501D104229B
:101350000EE0714501D140220AE0584D1435A942F2
:1013600006D0564A2832914201D11A4600E0224660
:101370004B4908394A60C16A71E04FF0020808FA27
:1013800004F818EA020F70D05FEA83786DD50A6816
:10139000920606D40A6822F00A020A60012180F847
:1013A0002110DFF810814FF40072016808F1140871
:1013B00013011402414524D9A9420DD0B1420FD0E6
:1013C000B9421AD0614515D0494515D0514501D1D2
:1013D000120312E0594501D102220EE0714501D1FC
:1013E00020220AE0354D1435A94206D0334A28326E
:1013F000914201D11A4600E022462F49091F0A6096
:1014000029E0A94213D0B14215D0B94220D061459C
:101410001BD049451BD0514502D14FF4001217E0B3
:10142000414502D14FF0007212E0594501D102222C
:101430000EE0714501D120220AE0204D1435A94269
:1014400006D01E4A2832914201D11A4600E02246B7
:10145000134908394A60002180F82010816A002968
:101460001CD0BDE8F05F0847FFE70825A5401542FE
:1014700014D01A0712D50A6822F00E020A6090F8FA
:101480004020C36B012101FA02F25A60816380F8A7
:101490002110002180F82010016BE0E7BDE8F09FEB
:1014A000080002401C00024030000240440002409C
:1014B000580002406C000240080402401C04024034
:1014C00030B560B11A4B026814219A4209D2194B07
:1014D0001344B3FBF1F18900016417490AE00120CC
:1014E00030BD134B5B421344B3FBF1F1890001643F
:1014F0000F490839C163022180F82110136843F6AF
:10150000F0718B43F0E901142143D0E902452C43EB
:1015100021430469214344692143846921431943D8
:10152000116000214163012242770177084630BDF6
:1015300008040240F8FFFDBF0000024070B50446F9
:1015400090F82000002501280CD0012084F820000C
:1015500094F821600020012E06D084F82000022596
:10156000284670BD022070BD022684F82160A06369
:101570002068066826F0010606602046FFF758FA44
:10158000E06A00282068016802D041F00E0106E000
:1015900021F0040101602068016841F00A01016046
:1015A0002068016841F001010160D9E72DE9F84F99
:1015B000DFF8C891002409F1040A0AF1040B23465C
:1015C0000F270BF1040ED1E00125A54006EA050224
:1015D000AA4276D1DFF8A8C14E68A6EB0C08664592
:1015E0002BD00DDC032E34D005DC36B3012E19D000
:1015F000022E2FD11BE0112E16D0122E2AD119E067
:10160000B8F5881F19D006DCB8F5803F15D0B8F5BD
:10161000801F1FD111E0B8F5001F0ED0B8F5041FD0
:1016200018D10AE0CB6815E0CB681B1D12E0CB682F
:1016300008330FE0CB680C330CE08B682BB1012B27
:101640004FF0080303D0456104E0042302E0056184
:1016500000E00023FF2A01D8064601E000F104065D
:101660004FEA840501D9A5F12005D6F8008007FAD4
:1016700005FC28EA0C0803FA05F548EA0508C6F84F
:1016800000804D68ED0070D53E4DAE6946F0010614
:10169000AE61AD6924F0030605F0010500953A4DF1
:1016A00006EB050CDCF80850A607360F07FA06F81B
:1016B00025EA0805DFF8D480404503D14FF0000843
:1016C00025E052E0DFF8C880404502D14FF0010824
:1016D0001DE0DFF8C080404502D14FF0020816E05F
:1016E000DFF8B480404502D14FF003080FE0DFF887
:1016F000AC80404502D14FF0040808E0DFF8A0803C
:10170000404502D14FF0050801E04FF0060808FA05
:1017100006F848EA0508CCF808804D68D9F800605A
:10172000ED034D4601D5164300E096432E604D680B
:10173000DAF80060AD03554601D5164300E0964344
:101740002E604D68DBF80060ED025D4601D5164362
:1017500000E096432E604D68DEF80060AD027546ED
:1017600001D5164300E096432E60641C0A681646B5
:10177000E2407FF429AFBDE8F88F0000000401408B
:10178000000011100010024000000140000801405C
:10179000000C0140001001400014014000180140FD
:1017A000001C0140C2680A4201D0416170470161DA
:1017B00070470AB1016170470904FBE7014880687E
:1017C000704700001C000020024881680278114424
:1017D000816070471C000020074810B5016841F087
:1017E00010010160032000F095F8002000F006F8D9
:1017F00000F03EF8002010BD0020024000B5014678
:1018000087B000222C2000F065F82C2000F054F85E
:101810001348816941F400518161806905A900F490
:1018200000500690684600F0FDF900F02BFA0D49D3
:101830000D4AB0FBF1F10D48491E0260416040F2D3
:10184000E7320021C0E90321816000F014FC10B1EF
:10185000012007B000BD054800F03AFCF9E70000A0
:101860000010024040420F0000340140A404002058
:101870000F4808B5816941F001018161816901F07A
:1018800001010091C16941F08051C161C06900222C
:1018900000F0805000900F21901E00F01BF80548CA
:1018A000416821F0E06141F00071416008BD000035
:1018B0000010024000000140002809DB00F01F0278
:1018C000012191404009800000F1E020C0F80011A2
:1018D00070470000F0B40E4B1B680C46C3F30223A4
:1018E000C3F10705042D00D90425191D072901D2CC
:1018F000002300E0DB1E012606FA05F1491E214007
:1019000099409E40761E16403143F0BC01F077BFEF
:101910000CED00E0064900F0070208684FF6FF03EF
:10192000184040EA0220034A104308607047000054
:101930000CED00E00000FA0510B52CA401461DCC0A
:1019400086B08DE81D002DA02D4C0068049000206D
:1019500004292FD00BDC01292FD0022928D100F037
:1019600091F96168C1F38131491C49001EE00829E1
:1019700020D010291CD161682268D20118D5C1F38A
:101980008342C9031DF8020009D5616804AAC1F3A6
:101990004041515C1B4AB2FBF1F1484301E01A4956
:1019A00048436168490203D440000321B0FBF1F0D1
:1019B00006B010BD00F076F9FAE7226AC2F3012101
:1019C000012903D1920701D5C803F1E7022905D106
:1019D000626A920702D549F64040E9E70329E7D158
:1019E00021688903E4D54FF22440E1E702030405AE
:1019F000060708090A0B0C0D0E0F1010010200005B
:101A00000010024000127A0000093D002DE9F84361
:101A100005460078354CC00754D0E0690026C00068
:101A200008D4E06940F08050E061E069012600F0F0
:101A3000805000902E480168C90512D40168804684
:101A400041F480710160FFF7B9FE074605E000BF71
:101A5000FFF7B4FEC01B642823D8D8F80000C005E7
:101A6000F6D5206A10F4407021D0A98801F44071A5
:101A700081421CD0206A1F49012220F440700A6074
:101A800000220A602062C00711D0FFF797FE0746C8
:101A900041F2883808E000BFFFF790FEC11B4145C6
:101AA00002D90320BDE8F883206A8007F4D5206AB4
:101AB000696820F44070084320621EB1E06920F09C
:101AC0008050E0612878800705D56068A96820F417
:101AD0004040084360602878C00605D560686969A1
:101AE00020F48000084360600020DBE70010024023
:101AF00000700040400442422DE9F0470F460500C7
:101B000061D0434E306800F00700B84209D2306817
:101B100020F0070038433060306800F00700B8421A
:101B200051D128683B4C810712D5400703D5606826
:101B300040F4E06060602878000703D5606840F4F6
:101B4000605060606068A96820F0F0000843606041
:101B50002878C00728D06868012810D0216802289A
:101B600010D0890700292EDA616821F003010143B2
:101B70006160FFF723FE804641F288390DE021685D
:101B80008903EFE78901EDE7FFF718FEA0EB0801F5
:101B9000494502D90320BDE8F0876068696800F014
:101BA0000C00B0EB810FEFD1306800F00700B842B5
:101BB0000BD9306820F0070038433060306800F0FF
:101BC0000700B84201D00120E5E72878400705D595
:101BD0006068E96820F4E0600843606028780007E6
:101BE00006D56068296920F4605040EAC100606051
:101BF00000F058F86168084AC1F30311515CC8400D
:101C00000649086006480068FFF7F8FD0020C2E7B3
:101C10000020024000100240F86500082800002063
:101C2000200000200F2202600C4A536803F00303D7
:101C30004360536803F0F0038360536803F4E06388
:101C4000C36052684FF4E06303EAD20202610448C1
:101C5000006800F0070008607047000000100240B4
:101C6000002002400448054900684968044AC1F35D
:101C70000221515CC840704728000020001002403B
:101C8000086600080448054900684968044AC1F329
:101C9000C221515CC840704728000020001002405B
:101CA0000866000812A185B00FC98DE80F0014A0C6
:101CB000144A006804905168134801F00C03042B87
:101CC00010D0082B0ED1C1F38343C9031DF80300C4
:101CD0000AD5516804AAC1F34041515C0A4A5043F5
:101CE000B0FBF1F005B0704708494843FAE700003F
:101CF00002030405060708090A0B0C0D0E0F10104D
:101D0000010200000010024000127A0000093D00AC
:101D10002DE9F84F040070D02078C04DC00749D09D
:101D20006868C0F38100012807D06868C0F38100AB
:101D3000022809D16868C00306D52868800339D510
:101D400060680028E7D035E06068B0F5803F0BD0D0
:101D500010B1B0F5A02F11D0286820F48030286091
:101D6000286820F4802002E0286840F48030286051
:101D7000606890B1FFF722FD06460AE0286840F44B
:101D800080202860F0E700BFFFF718FD801B642863
:101D900073D828688003F7D50CE0FFF70FFD0646DF
:101DA00005E000BFFFF70AFD801B6428F0D8286813
:101DB0008003F7D420789A4E80074FF001094FF046
:101DC000000839D5686810F00C0F07D06868C0F3B8
:101DD0008100022809D16868C00306D428688007FA
:101DE00014D52069012808D110E02069B0B1C6F8E7
:101DF0000090FFF7E3FC074605E00AE1FFF7DEFC91
:101E0000C01B0228C4D828688007F7D528686169F4
:101E100020F0F80040EAC10028600DE0C6F800801C
:101E2000FFF7CCFC074604E0FFF7C8FCC01B022804
:101E300023D828688007F7D4207800072CD5794864
:101E4000A169D9B1C0F80090FFF7B8FC074604E0DB
:101E5000FFF7B4FCC01B02280FD8686A8007F7D5CB
:101E600071484FF4FA510068B0FBF1F0009000BFE8
:101E70000098411E0091FAD20EE080E0C0F8008088
:101E8000FFF79CFC074604E0FFF798FCC01B022804
:101E900075D8686A8007F7D42078400760D5E8696C
:101EA0000027C00008D4E86940F08050E861E86984
:101EB000012700F0805000905C480168C90513D4E8
:101EC0000168834641F480710160FFF777FC824628
:101ED00006E000BFFFF772FCA0EB0A0064284ED8B2
:101EE000DBF80000C005F5D5E06801280AD008B18C
:101EF000052813D0286A20F001002862286A20F003
:101F0000040002E0286A40F001002862E06841F223
:101F1000883B98B1FFF752FC82460BE0286A40F0FC
:101F200004002862EEE700BFFFF748FCA0EB0A01BF
:101F300059455AD8286A8007F6D50CE0FFF73EFCD1
:101F4000824605E0FFF73AFCA0EB0A0159454CD860
:101F5000286A8007F6D41FB1E86920F08050E86154
:101F6000E06988B36968C1F38101022944D002287D
:101F7000C6F8608004D0FFF721FC044638E034E066
:101F8000FFF71CFC074604E0FFF718FCC01B022803
:101F90002BD828688001F7D4206AB0F5803F05D19E
:101FA0006868A16820F4003008436860D4E908013B
:101FB0000843696821F4741108436860C6F86090AA
:101FC000FFF7FCFB044606E025E000BFFFF7F6FB49
:101FD000001B022809D828688001F7D51BE000BF44
:101FE000FFF7ECFB001B022802D90320BDE8F88FA5
:101FF00028688001F4D40EE00128F7D06868226ACE
:1020000000F48031914204D1616A00F4701088427A
:1020100001D00120EAE70020E8E7000000100240BC
:10202000000042428004424228000020007000402C
:102030007047704770B590F83C20012A19D00124F0
:1020400000F83C4F0222427050F83C3C5A689D68B0
:1020500022F070060A684968324325F0800529435A
:102060005A6050F83C2C9160447000210170084681
:1020700070BD022070BD10B5040003D094F83D007F
:1020800010B107E0012010BD002084F83C0020467C
:1020900000F00CF8022084F83D00211D206801F0BA
:1020A000D5F8012084F83D00002010BD08B5006877
:1020B000B0F1804F08D10548C16941F00101C1610B
:1020C000C06900F00100009008BD0000001002404F
:1020D0000168CA6842F00102CA600068816801F0C4
:1020E0000701062903D0016841F0010101600020C9
:1020F000704770B5044690F83C00012817D00125C0
:1021000084F83C50022084F83D002068826822F068
:10211000770222F47F4282600868502830D00DDCBC
:1021200020284DD005DC98B310283BD148E0022090
:1021300070BD302844D0402834D139E0602828D000
:10214000702806D0B0F5805F2CD0B0F5005F29D1A3
:102150000AE0CB68D1E90121206801F0CAF82068C3
:10216000816841F0770109E0CB68D1E9012120685D
:1021700001F0BFF82068816841F48041816011E07E
:10218000CA684968206801F089F95021206807E091
:1021900016E0CA684968206801F091F9602120685A
:1021A00001F0B1F884F83D50002084F83C0070BD87
:1021B000CA684968206801F071F940212068EFE79A
:1021C000226801461046EBE7704770B50446006888
:1021D00001694FF00005C943890715D4C168C94397
:1021E000890711D4E91E01610120207720688069E8
:1021F0008007204602D0FFF7E7FF04E000F0DAF89E
:10220000204600F05CF9257720680169C943490739
:1022100017D4C168C943490713D46FF004010161A1
:10222000022020772068806910F4407F204602D089
:10223000FFF7CAFF04E000F0BDF8204600F03FF9C8
:10224000257720680169C943090716D4C168C943C5
:10225000090712D46FF0080101610420207720687B
:10226000C0698007204602D0FFF7AEFF04E000F00F
:10227000A1F8204600F023F9257720680169C943B9
:10228000C90617D4C168C943C90613D46FF0100139
:102290000161082020772068C06910F4407F204643
:1022A00002D0FFF791FF04E000F084F8204600F030
:1022B00006F9257720680169C943C90708D1C168B3
:1022C000C943C90704D1891E0161204600F01AF9EB
:1022D00020680169C943090609D4C168C9430906D0
:1022E00005D46FF0800101612046FFF7A1FE206850
:1022F0000169C943490609D4C168C943490605D4DF
:102300006FF040010161204600F006F92068016984
:10231000C94389060BD4C168C943890607D46FF045
:10232000200101612046BDE87040FFF782BE70BD0C
:1023300010B586B0002100910191029103910068CF
:10234000B0F1804F2BD11748816941F008018161BC
:10235000816901F008010491816941F00401816102
:102360008069022400F00400049040F60840CDE9A2
:10237000000469460C480394FFF718F9A003CDE95F
:102380000004694609480394FFF710F908484168BA
:1023900021F4407141F0E06141F44071416006B0C8
:1023A00010BD000000100240000C01400008014078
:1023B00000000140704770B5044690F83C000D469F
:1023C00001280DD0012684F83C60022084F83D00ED
:1023D00042B1042A18D0082A2AD00C2A4DD139E05B
:1023E000022070BD206800F097FF2068816941F0ED
:1023F000080181612068816921F004018161206800
:1024000081692A69114311E0206800F0B5FF206856
:10241000816941F4006181612068816921F48061F2
:102420008161206881692A6941EA0221816124E091
:10243000206800F0D7FF2068C16941F00801C16140
:102440002068C16921F00401C1612068C1692A695D
:10245000114311E0206800F0F9FF2068C16941F4E0
:102460000061C1612068C16921F48061C161206897
:10247000C1692A6941EA0221C16184F83D600020F6
:1024800084F83C0070BD10B5040003D094F83D0002
:1024900010B107E0012010BD002084F83C00204668
:1024A00000F00CF8022084F83D00211D206800F0A7
:1024B000CDFE012084F83D00002010BD704770471C
:1024C00010B504460068012200F006FF0B492068A1
:1024D000884202D00A49884203D1416C41F400414C
:1024E00041642068816801F00701062903D0016872
:1024F00041F001010160002010BD0000002C0140EE
:102500000034014000680349884201D1FFF75CB9FB
:102510007047000000340140704710B50446006861
:10252000416994F83920C1F3C011212A0BD151B16E
:10253000416921F080014161206B08B1FEF7E1FDA6
:10254000204601F04FF82068416994F83A20C1F321
:102550008011222A0BD151B1416921F04001416122
:10256000606B08B1FEF7CDFD204601F02DF800208C
:1025700010BD704770B5026804461068D168536991
:1025800010F00F0F50D003F0010501F490763543A1
:102590005DD0C20705D0CA0503D5E26B42F0010247
:1025A000E263420705D5DA0703D0E26B42F002028C
:1025B000E263820705D5DA0703D0E26B42F004023A
:1025C000E263020705D5DA0703D0E26B42F00802A6
:1025D000E263E26B002A33D0800604D5880602D578
:1025E000204601F008F820684069E16BC0F38010D4
:1025F000090700D428B3204600F0E6FF20684169AF
:1026000049061AD5416921F040014161606BA0B1D2
:102610001B494163606BFEF797FD002810D0606B8B
:10262000416BBDE870400847830610D58B060ED578
:102630002046BDE8704000F0DEBF2046FFF799FF5E
:1026400070BD2046FFF795FF0020E06370BD0306D4
:1026500006D50B0604D52046BDE8704001F072B8DF
:102660004006F3D54806F1D5D168204621F0400157
:10267000D160202184F8391000F086FA70BD000086
:10268000F134000870B5040004D094F83900002536
:1026900010B106E0012070BD84F83850204600F0EB
:1026A00023F8242084F839002068C16821F40051FF
:1026B000C160204600F0EAFF2068016921F49041E2
:1026C00001612068416921F02A0141612068C168E7
:1026D00041F40051C160E563202084F8390084F89A
:1026E0003A00002070BD00002DE9F04786B00025BB
:1026F00000950195029503950446CF4BD0F800C094
:10270000CE4802210322102780264FF480689C4582
:1027100055D1C36943F40023C361C36903F40023A3
:102720000493836943F0100383618069CDE90081DC
:1027300000F01000CDE90320DFF80483694640462D
:10274000FEF734FF3001CDE90005694640460295A9
:10275000FEF72CFFDFF8F092BA494846B046C0E9D0
:102760000015C0E90256C9F81050C9F81450C9F84C
:102770001850C9F81C50FEF7A3FE08B1FEF76EF919
:10278000B14EB048C4F8349044362830C9F82440DB
:102790003060C6E90175C6E903857561B5613046EB
:1027A000F561FEF78DFE08B1FEF758F926630022A9
:1027B000052134207462FFF78DF834205AE0A34BD2
:1027C0004FF400799C455AD1836943F48043836177
:1027D000836903F480430493836943F004038361B2
:1027E0008069CDE9009100F00400CDE90320DFF815
:1027F000609269464846FEF7D9FECDE900856946F4
:1028000048460295FEF7D2FEDFF83C82914908F176
:1028100088084046B146C0E90015C0E90256C8F82C
:102820001050C8F81450C8F81850C8F81C50FEF7DB
:1028300047FE08B1FEF712F9834E8648C4F834808B
:10284000CC361438C8F824403060C6E90175C6E9B2
:1028500003957561B5613046F561FEF731FE08B14B
:10286000FEF7FCF826630022052125207462FFF79D
:1028700031F82520FFF720F806B0BDE8F087DFF833
:10288000D881764BDFF8D8A1C44568D1D0F81CC0F8
:102890004CF4003CC0F81CC0D0F81CC00CF4003C48
:1028A000CDF810C0D0F818C04CF0200CC0F818C0FB
:1028B0008069039200F0200004902020CDE90001FF
:1028C000694698461846FEF771FE4020CDE900059E
:1028D000A946694640460295FEF768FEDAF80410FC
:1028E00041F0E06141F00801CAF80410DFF874819A
:1028F000584940461431C0E90015C0E90256C8F8ED
:102900001050C8F81450C8F81850C8F81C50FEF7FA
:10291000D7FD08B1FEF7A2F8524D4E48C4F83480F6
:1029200044352830C8F82440C5E90007C5E90296B7
:10293000C5F81090C5F81490C5F818902846C5F849
:102940001C90FEF7BDFD08B1FEF788F82563002254
:10295000052126206C62FEF7BDFF26208AE7DFF8FE
:102960000881C44588D1D0F81CC04CF4802CC0F834
:102970001CC0D0F81CC00CF4802CCDF810C0D0F8CE
:1029800018C04CF0200CC0F818C08069039200F009
:10299000200004904FF48070CDE90001694698460C
:1029A0001846FEF703FECDE90095694640460295BC
:1029B000FEF7FCFDDAF8041021F0300141F0E0618F
:1029C00041F03001CAF80410DFF89880214908F17D
:1029D000880840462839C0E90015C0E90256C8F801
:1029E0001050C8F81450C8F81850B146C8F81C5018
:1029F000FEF766FD08B1FEF731F81A4E1548C4F827
:102A00003480CC363C38C8F824403060C6E90175C3
:102A1000C6E903957561B5613046F561FEF750FD75
:102A200008B1FEF71BF826630022052127207462F7
:102A3000FEF750FF27201DE7004C00400010024029
:102A400000100140300402408402002000380140A0
:102A500000080140580002400044004000140140BA
:102A6000000001409403002000480040F8B50446EF
:102A700090F83A0020283CD1C1B3BAB394F838009A
:102A8000012836D0012084F83800A162A2850025F3
:102A9000E563222084F83A00636B17489862636B01
:102AA0001648D862636B16481863606B134645631B
:102AB0000846666B216802463046091DFEF73EFD5A
:102AC000206801684168009184F83850C16841F479
:102AD0008071C1602068416941F001014161206855
:102AE000416941F0400141610020F8BDFFE701204C
:102AF000FBE70220F9E700004B35000887350008A6
:102B0000013500087047704770B5044690F83900E9
:102B1000202830D169B362B394F8380001282AD054
:102B2000012084F838002162A284E2840025E56354
:102B3000212084F83900236B10489862236B1048D9
:102B4000D862236B0F481863206B134645632668D1
:102B5000206B321DFEF7F2FC21686FF04000086028
:102B600084F838502068416941F0800141610020BB
:102B700070BD012070BD022070BD000091350008BD
:102B8000BF3500080135000807490A68824207D0AE
:102B900006490A68824203D005490A68824202D186
:102BA000D1F83004004770473C560020745A00208A
:102BB000AC5E00207047FEE7FEB50024404800945C
:102BC00001943E49029401608915816001250573D5
:102BD00004750A2606614FF460214460C161FEF766
:102BE0007FF808B1FDF73AFFCDE9004507246946B3
:102BF00033480294FDF7F2FF08B1FDF72FFF00956F
:102C0000022569462E480195FDF7E8FF08B1FDF75A
:102C100025FF00950325694629480195FDF7DEFF4C
:102C200008B1FDF71BFF0420CDE900506946244898
:102C3000FDF7D4FF08B1FDF711FF06250520CDE90A
:102C4000005069461E48FDF7C9FF08B1FDF706FFB1
:102C500069461B48CDE90045FDF7C0FF08B1FDF707
:102C6000FDFE0C20CDE9000469461548FDF7B6FFCE
:102C700008B1FDF7F3FE0D20009008200190694691
:102C80000F48FDF7ABFF08B1FDF7E8FE10200090FC
:102C90000920019069460A48FDF7A0FF08B1FDF739
:102CA000DDFE1120CDE9000669460548FDF796FFD7
:102CB000002801D0FDF7D2FEFEBD00000024014037
:102CC000BC0000201CB50024104900940E4801945B
:102CD00008600846FEF799F908B1FDF7BFFE0094B9
:102CE0000022694609480194FEF768F908B1FDF72A
:102CF000B5FE102269460548FEF760F9002801D0AC
:102D0000FDF7ACFE1CBD0000007400403001002047
:102D10002D4808B5416941F001014161416901F067
:102D200001010091416941F00201416140690022C5
:102D300000F00200009005210B20FEF7CBFD0B20D8
:102D4000FEF7BAFD002205210C20FEF7C3FD0C2082
:102D5000FEF7B2FD002205210D20FEF7BBFD0D2080
:102D6000FEF7AAFD002205210E20FEF7B3FD0E207E
:102D7000FEF7A2FD002205210F20FEF7ABFD0F207C
:102D8000FEF79AFD002205211020FEF7A3FD10207A
:102D9000FEF792FD002205211120FEF79BFD112078
:102DA000FEF78AFD002205213A20FEF793FD3A2026
:102DB000FEF782FD002205213B20FEF78BFDBDE8DA
:102DC00008403B20FEF778BD0010024010B5A4B0CB
:102DD000142227496846FDF723FA0021684601F0CE
:102DE000F3FA244C224914222060143105A8FDF77F
:102DF00017FA002105A801F0E7FA1D4960601422C6
:102E000028310AA8FDF70CFA00210AA801F0DCFA23
:102E10001749A06014223C310FA8FDF701FA0021E8
:102E20000FA801F0D1FA1249E0601422503114A821
:102E3000FDF7F6F9002114A801F0C6FA0C4920614B
:102E40001422643119A8FDF7EBF9002119A801F04B
:102E5000BBFA07496061142278311EA8FDF7E0F93A
:102E600000211EA801F0B0FAA06124B010BD00003E
:102E70006C650008000000202DE9F04F85B00025AA
:102E800049480095019502950395816941F04001FB
:102E90008161816901F040010491816941F0100173
:102EA0008161816901F010010491816941F004019F
:102EB0008161816901F004010491816941F0080197
:102EC0008161816901F008010491816941F020016B
:102ED00081618069DFF8D4B000F020000490002206
:102EE0003C215846FEF765FC4EF2804800224146E0
:102EF0002F48FEF75EFC4FF49E59002249462D48AC
:102F0000FEF757FC4FF4106A002251462A48FEF79C
:102F100050FC002280212948FEF74BFC3C20009009
:102F200001260224CDE90164694658460394FEF760
:102F30003DFB3020CDE90005694602941D48FEF7AF
:102F400035FB0720CDE90005694602941B48FEF7D2
:102F50002DFB80270097CDE9015469465846FEF7BE
:102F600025FBCDE90254CDE9008669461048FEF7FD
:102F70001DFBCDE90254CDE9009669460D48FEF7E8
:102F800015FBCDE90254CDE900A669460A48FEF7D3
:102F90000DFBCDE90254CDE9007669460748FEF7FE
:102FA00005FB05B0BDE8F08F00100240001801409D
:102FB000001401400010014000080140000C0140D5
:102FC00010B58EB000240794089409940A940B94C9
:102FD0001C2168460C94FDF73CF92A484FF08041CB
:102FE00001603B21C0E901144FF47A71C0E9031478
:102FF0008461FFF740F808B1FDF730FD4FF48050D1
:10300000079007A91F48FFF774F808B1FDF726FDE0
:103010001C48FFF738FA08B1FDF720FD0B940BA907
:1030200018480C94FFF706F808B1FDF717FD60206B
:10303000CDE9000402200290002269460494114860
:10304000FFF7B9F908B1FDF709FD042269460D48FB
:10305000FFF7B1F908B1FDF701FD082269460948FB
:10306000FFF7A9F908B1FDF7F9FC0C2269460548FC
:10307000FFF7A1F908B1FDF7F1FC0248FFF758F995
:103080000EB010BD440100200C4810B50A49016083
:103090004FF4E1314160002181600C22C160C0E940
:1030A00004128161C161FFF7EDFA002803D0BDE889
:1030B0001040FDF7D3BC10BD004C0040840100203F
:1030C0000C4810B50A4901604FF4E131416000211C
:1030D00081600C22C160C0E904128161C161FFF707
:1030E000D1FA002803D0BDE81040FDF7B7BC10BDF1
:1030F00000380140C40100200C4810B50A490160A5
:103100004FF4E1314160002181600C22C160C0E9CF
:1031100004128161C161FFF7B5FA002803D0BDE850
:103120001040FDF79BBC10BD00440040040200208D
:103130000C4810B50A4901604FF416514160002156
:1031400081600C22C160C0E904128161C161FFF796
:1031500099FA002803D0BDE81040FDF77FBC10BDF0
:103160000048004044020020FEE7704710B55020A0
:1031700080F31188BFF34F8FBFF36F8F02F0E4FF2E
:1031800018B104494FF080500860002080F3118886
:1031900010BD000004ED00E030B595B02821684670
:1031A000FDF757F814210AA8FDF753F818210FA8C6
:1031B000FDF74FF8022401200490009410200590A0
:1031C00000254FF45010CDE9085007946846FEF7EB
:1031D0009FFD0AA90F2081E831006002CDE90D05AD
:1031E00002210AA8FEF788FCA00311900F940FA8F3
:1031F000FEF70CFC15B030BD0D48016841F001012F
:10320000016041680B4A1140416001680A4A11405F
:103210000160016821F480210160416821F4FE0110
:1032200041604FF41F0181600449C003086070478A
:10323000001002400000FFF8FFFFF6FE08ED00E07E
:103240000148FEF7C2BF0000A4040020F0B50268E8
:103250001C4B1D4D1D4E1E4F1E4C4FF0804C984276
:1032600009D0A04207D0604505D0A84203D0B042A3
:1032700001D0B84204D122F0700E4A6842EA0E0230
:10328000984209D0A04207D0604505D0A84203D09B
:10329000B04201D0B84203D122F44075CA682A4333
:1032A0004D6922F080022A4302608A68C2620A687D
:1032B0008262984201D0A04201D1096901630121D3
:1032C0004161F0BD002C01400004004000080040B6
:1032D000000C00400034014010B501F01F03012133
:1032E000046A99408C430462016A9A401143016266
:1032F00010BD10B5846842EA032224F47F440A43D7
:103300002243826010BD826822F070020A4342F0BC
:103310000701816070470000F0B5026A22F00102E7
:103320000262036A42688469124E24F073050C68D5
:103330002C4323F002058B682B430D4DA84201D08E
:10334000B04205D123F00807CB683B4323F00403C8
:10335000A84201D0B04205D14D6922F44072154314
:103360008A692A4342608461496841630362F0BD0F
:10337000002C014000340140F0B5026A22F0100236
:103380000262026A436884690D6824F4E64444EAF0
:1033900005248D6822F0200242EA05120F4D104EDE
:1033A000A84201D0B04206D1CF6822F0800242EAA2
:1033B000071222F04002A84201D0B04207D14D6965
:1033C00023F4406343EA85038D6943EA8503436040
:1033D0008461496881630262F0BD0000002C0140F5
:1033E00000340140F0B5026A22F480720262026A7F
:1033F0004368C46922F4007224F073050C68124E0D
:103400002C438D6842EA05220E4DA84201D0B042FD
:1034100006D1CF6822F4006242EA072222F48062D9
:10342000A84201D0B04207D14D6923F4405343EA8A
:1034300005138D6943EA05134360C4614968C1639C
:103440000262F0BD002C01400034014030B5026A38
:1034500022F480520262046A4268C3690D6823F450
:10346000E64343EA05238D6824F4005444EA053416
:10347000084DA84202D0084DA84204D14D6922F45B
:10348000804242EA85124260C36149680164046275
:1034900030BD0000002C01400034014010B5036A2B
:1034A000046A24F001040462846924F0F00444EA0C
:1034B000021423F00A020A438461026210BD10B5AF
:1034C000036A23F0100303628369046A23F47043E0
:1034D00043EA023224F0A00343EA0111826101624F
:1034E00010BD00000148FFF745B80000840100202E
:1034F00010B5406A0021C185C184FFF73AF810BDBC
:1035000070B5446A2068406994F83910C0F3C0105F
:103510000025212904D118B1E584204600F062F885
:103520002068406994F83A10C0F38010222904D131
:1035300018B1E585204600F047F8E06B40F0100038
:10354000E0632046FFF715F870BD10B50146406AEC
:1035500009680968890613D40021C1850168CA6811
:1035600022F48072CA6001684A6922F001024A614D
:1035700001684A6922F040024A61202180F83A102D
:10358000FFF7C0FA10BD10B5406AFFF7BCFA10BDD6
:1035900010B50146406A0968096889060CD4002103
:1035A000C18401684A6922F080024A610068C168EA
:1035B00041F04001C16010BDFFF7E6FA10BD10B543
:1035C000406AFFF7F7FA10BD0168CA6822F49072EA
:1035D000CA6001684A6922F001024A61202180F82C
:1035E0003A1070470168CA6822F0C002CA60202100
:1035F00080F83910704710B590F83A10222901D0A0
:10360000022010BD8168B1F5805F11D001690029E9
:1036100001681FD0496801F07F03816A4A1C8262F9
:103620000B70C18D491E0904090CC18518D02BE00F
:103630000269816A002A0268526805D0D2B20A8003
:10364000816A491C8162ECE7C2F308020A80816A40
:10365000891CF7E74A68816A4B1C83620A70E0E7BD
:103660000168CA6822F02002CA600168CA6822F4B0
:103670008072CA6001684A6922F001024A61202111
:1036800080F83A10FFF73EFA002010BD2DE9F04116
:10369000044600680169E26821F440511143016168
:1036A0002169A0680843616908432168CA6841F23A
:1036B0000C639A430243CA6020684169A26921F4FD
:1036C0004071114341611E492068642532268842B9
:1036D00002D1FEF7D7FA01E0FEF7C4FA00EBC00111
:1036E00001EB001160686FF018078000B1FBF0F289
:1036F000B2FBF5F2B1FBF0F37A4303EB8202B1FBCC
:10370000F0F306EB0212B2FBF5F2B3FBF5F302F0B5
:10371000F00202EB0312B1FBF0F3B1FBF0F0B0FBEF
:10372000F5F0784303EB800006EB0010B0FBF5F0FA
:10373000216800F00F0010448860BDE8F0810000AF
:103740000038014090F83910212901D0022070473B
:103750008168B1F5805F016A0BD04A1C0262026881
:1037600009785160C18C491E0904090CC1840ED02E
:1037700017E009880268C1F3080151600169002956
:10378000016A02D0491C0162ECE7891CFBE7016871
:10379000CA6822F08002CA600068C16841F0400136
:1037A000C160002070470000044810B5D0F828041C
:1037B0008047BDE810400248FEF7DCBE3C560020C2
:1037C000C4010020044810B5D0F828048047BDE8A3
:1037D00010400248FEF7CEBEAC5E0020040200207E
:1037E000044810B5D0F828048047BDE810400248CE
:1037F000FEF7C0BE745A002044020020FEE709070D
:10380000090E002804DB00F1E02080F80014704766
:1038100000F00F0000F1E02080F8141D704702E076
:1038200008C8121F08C1002AFAD17047704700204B
:1038300001E001C1121F002AFBD170471E4800237E
:10384000B0F80015C1B1B0F90225012142B1012A39
:103850000BD0022A0CD0032A0ED0042A0FD013E07A
:10386000A0F81415A0F816350EE0A0F8141509E01C
:10387000A0F81415022105E0A0F8143504E0A0F822
:1038800014150421A0F816154FF080410A6CEE2A99
:1038900001D8012106E0096CB1F5107F01D80221A1
:1038A00000E00321A0F81815B0F80415A0F81A15C7
:1038B000A0F81E1570470000EC62002070B5344C73
:1038C00094F8000108B1012200E00022314D4FF4CC
:1038D00000512846FDF76DFF94F8010108B101225F
:1038E00000E000224FF480412846FDF762FF94F883
:1038F000020108B1012200E000224FF400412846F5
:10390000FDF757FF94F8030108B1012200E00022FF
:10391000214E40213046FDF74CFF94F8040108B1D8
:10392000012200E0002280213046FDF742FF94F89A
:10393000050108B1012200E000224FF480752946FC
:103940003046FDF736FF94F8060108B1012200E089
:1039500000224FF400713046FDF72BFF94F8070169
:1039600008B1012200E0002229460C48FDF721FFA2
:103970004FF08040B4F93E154163B4F93C158163C2
:10398000B4F93A15C163B4F93815016470BD00008B
:10399000EC620020001401400010014000080140CA
:1039A0002DE9F0412F4D4FF47A78B5F9060568B14D
:1039B000EE21484390FBF8F208FB12004FF08041E3
:1039C00008640020A5F82603BDE8F08100F028FA7D
:1039D000044600F0F9F90746B5F94805FCF75AFD29
:1039E0002149884201DB04260AE02049884201DBA4
:1039F000032605E01E49884201DB022600E001267D
:103A0000B5F94605FCF746FD1A49884201DB04205A
:103A10000AE01949884201DB032005E01749884282
:103A200001DB022000E001200121A5F82613A742B6
:103A300003D902213C46A5F82613A64203D9032147
:103A40003446A5F82613A04203D904460420A5F85D
:103A50002603EE204443B4FBF8F108FB1140A5F81F
:103A60003805B1E7EC6200200000E1440080BB446F
:103A700000009644000016430000C842000048427F
:103A800070B5134D134CB5F93405FCF70CFD00224D
:103A90002346FCF790FCFCF75BFDFCF715FD0022CC
:103AA0002346FCF7E1FB00220E4604461346FCF7D2
:103AB0001FFD01D2012007E0204631460022064BBF
:103AC000FCF72EFD02D2002085F8000170BD000039
:103AD000EC620020000024400000E03F7CB504467A
:103AE000002000900121684600F001FC114D0022E9
:103AF0001146286010480068019001A800F07CFC85
:103B00000E4968600E48C1E90040C01408810D48A4
:103B1000C1F82C040C48C1F830040C48C1F8280442
:103B20000B48C1F824042068C16841F01001C1604D
:103B30007CBD0000A0000020106800083C5600205A
:103B400000080140853F0008753F0008953F0008C8
:103B5000D93E000800B5114885B01021817241821C
:103B600008218182694600F0F7FA012814D10C4837
:103B7000BDF80010A0F84215BDF80210A0F84415D9
:103B8000BDF80410A0F84615BDF80810A0F84815B7
:103B9000BDF80E10A0F84A1505B000BD3C56002037
:103BA000EC6200207CB504460020009001216846AC
:103BB00000F09DFB124D002211462860114800685C
:103BC000019001A800F018FC0F4968600F48C1E996
:103BD000004000150881012088720D48C1F82C04AE
:103BE0000C48C1F830040C48C1F828040B48C1F84F
:103BF00024042068C16841F01001C1607CBD000050
:103C0000A800002014680008745A00200014014025
:103C1000A940000899400008B9400008FD3F00088D
:103C2000F0B59DB064216846FCF713FB2A4D0026D1
:103C30001E276E82AF826946284600F08DFA274C17
:103C400001280BD10020694604EB400331F8102015
:103C5000401CC0B2A3F828231E28F5D3EF82042706
:103C60002F8319961A961B96B4F81405ADF86400C4
:103C7000B4F81605ADF86800B4F81805ADF86A0098
:103C800019A9154804F2145400F0CEFA3620E8823F
:103C90002F83E088ADF864002089ADF86600608964
:103CA000ADF86800A089ADF86A0019A90A4800F0CB
:103CB000BBFA5120E88203202883E08DADF8640030
:103CC000E08AADF86600208AADF8680019A90248BC
:103CD00000F0AAFA1DB0F0BD745A0020EC6200207A
:103CE000F8B50546002601216846009600F0FFFA67
:103CF0001D491E4C08601E4804F58861C4E9005047
:103D0000802020810120A0721A48C4F82414C4F82D
:103D10002C041948C4F830041848C4F8280418487A
:103D2000C4F834041748C4F838041748C4F83C04ED
:103D30004FF4FA70A1F80005A1F80205A1F80405F6
:103D4000A1F80605A1F808652868C16841F01001CE
:103D5000C160D4F8300480474FF4007204F12001B0
:103D60002068FEF783FEF8BDB0000020AC5E0020A6
:103D700000140140E54D0008D54D0008F54D000840
:103D8000814D0008354E0008AD4E00080C4810B5B6
:103D90004FF0FF31006800F0E5FA00280FD1094C20
:103DA0002068FEF7BAFB204600F082FF04F12001F4
:103DB0002068BDE810404FF40072FEF757BE10BDFA
:103DC000B0000020AC5E0020104810B5B0F802151D
:103DD000022918D1B0F94405FCF765FB00220C4B11
:103DE000FCF7E9FAFCF7B4FB0A49884201DB04203E
:103DF00010BD0949884201DB032010BD07498842F4
:103E000001DB022010BD012010BD0000EC6200208B
:103E1000000024400000B4420000964200007042BE
:103E20002DE9F0411548174C154FB0F90225B0F9AE
:103E300042156602B0F904054FF08245012A02D00E
:103E4000042A07D017E0081A05E0B04213DB02206D
:103E5000BDE8F081401AFCF726FB00223B46FCF748
:103E6000AAFAFCF775FBA84201DB0420F0E7A042A8
:103E7000EBDB0320ECE70120EAE70000EC62002026
:103E8000000024400000A040EFF30580002800D08F
:103E900001207047FDF7A0FCFFF77EF9FEF7ECFF6D
:103EA000FEF736FFFEF788FEFEF70CFFFFF788F8F7
:103EB000FFF7EAF8FFF704F9FFF71EF9FFF738F903
:103EC000FEF784FF00F00EFAFEE701460020842989
:103ED00000D0C81C704700002DE9F041224C074675
:103EE00004F21E21B4F81E04E0810D46204600F0C5
:103EF00017F9B4F81E14207B1C4E4855B4F81E0464
:103F0000401C80B2A4F81E04617B4155B4F81E0425
:103F10000021401CA4F81E04306800F023FA4FF47E
:103F2000007204F11C012068FEF7A0FDD4F82C04F7
:103F30008047B4F81E2429462068FEF7E5FD39467F
:103F4000306800F00FFA0A4958B1002084F82004C4
:103F500081F814012068FEF7E0FA94F82004BDE827
:103F6000F0810120F2E700003C560020A000002074
:103F7000EC6200200248002201894068FDF719BC6C
:103F80003C5600200248012201894068FDF711BC1F
:103F90003C5600200D4A82B0116808680368DB06B1
:103FA00012D5C368DB060FD5036840680090486BE4
:103FB000006840680521C0F50070A2F81C020448A2
:103FC000406802B000F02ABA02B070473C560020A8
:103FD000A00000200748B0F81C120068406B006881
:103FE0004068C0F50070814203D10348006800F0CA
:103FF00091B970473C560020A00000202DE9F04107
:10400000224C074604F21E21B4F81E04E0810D463E
:10401000204600F085F8B4F81E14207B1C4E48554D
:10402000B4F81E04401C80B2A4F81E04617B415504
:10403000B4F81E040021401CA4F81E04306800F0EF
:1040400091F94FF4007204F11C012068FEF70EFD97
:10405000D4F82C048047B4F81E2429462068FEF7C3
:1040600053FD3946306800F07DF90A4958B1002007
:1040700084F8200481F815012068FEF74EFA94F8C0
:104080002004BDE8F0810120F2E70000745A00200E
:10409000A8000020EC62002002480022018940684C
:1040A000FDF787BB745A002002480122018940684D
:1040B000FDF77FBB745A00200D4A82B01168086872
:1040C0000368DB0612D5C368DB060FD503684068BA
:1040D0000090486B006840680521C0F50070A2F8A8
:1040E0001C020448406802B000F098B902B0704762
:1040F000745A0020A80000200748B0F81C1200687D
:10410000406B00684068C0F50070814203D10348ED
:10411000006800F0FFB87047745A0020A800002023
:1041200070B5FF220B4C0273427304F580750AE0F0
:10413000027B11F8013B5A400282437BA65C73402C
:104140000373AA5C4273C289531EC381F0D2808973
:1041500040BA70BD106600082DE9F0410E460321FB
:10416000C1720446837A002500F21E2001222B54DE
:104170001154628A0223170A1F540A54A18A042385
:104180000F0A05221F540623A4F81E341154D4F834
:1041900024144FF448708847E8B1204600F01DF819
:1041A000C8B1A07FA18AB0EB410F14D165830BE0A9
:1041B00004EB400191F82020C97F02EB012126F891
:1041C0001010608B401C6083608BA18A8842EFD303
:1041D0000120BDE8F0810020FBE710B50446B0F8EF
:1041E0001C0205281CD3801EE08104F11C0120461E
:1041F000FFF796FFB4F81C0204F11A01227B415C20
:104200008A420DD104F11B01627B405C824207D1DE
:10421000207FA17A884203D1607FE17A884201D071
:10422000002010BD012010BD70B51022C2720446DE
:10423000857A002300F21E2001261D543254E28AA2
:104240000225160A03232E541A54228B0425160A1B
:1042500005232E541A54062507235200A4F81E34B1
:104260002A54002212E000BF31F812301E0AB4F8BE
:104270001E345D1CA4F81E541E54B4F81E3411F8EC
:1042800012605D1CA4F81E541E54521C238B9342D2
:10429000EAD8D4F824144FF448708847C8B12046AF
:1042A000FFF79BFFA8B1A17FE08AB1EB102F10D1DF
:1042B000E17FC0B281420CD194F82010208BB1EB89
:1042C000102F06D194F82110C0B2814201D10120F3
:1042D00070BD002070BD10B500B9012001F0D2F909
:1042E000002010BD10B501F089FA002010BD10B5F6
:1042F000012901D0002010BD03220021012001F07E
:104300003FFB040004D000231A46194601F0A0FB2D
:10431000204610BD38B5002405460094FFF7B4FDD3
:1043200090B16946284601F0A1FC012801D0FF2088
:1043300038BD009888B10A494FF080500860BFF33B
:104340004F8FBFF36F8F08E000231A4619462846A7
:1043500001F07EFB012800D0FF24204638BD00007C
:1043600004ED00E038B505004FF0000000900FD0DC
:104370000024481C0ED001B10C46FFF785FDB8B1F2
:104380006A460021284601F05BFD012816D104E0B1
:10439000802038BD4FF0FF34EFE7009880B1094925
:1043A0004FF080500860BFF34F8FBFF36F8F07E06F
:1043B0002146284601F092FD012801D0FF2038BD9A
:1043C000002038BD04ED00E03EB504460D46B0F9CE
:1043D0000800FFF77AFD02A9CDE90001208A2B46EB
:1043E00082B2D4E9001001F06FFE012801D0002054
:1043F0003EBD02983EBD000008B50068009001294E
:1044000007D0002013460246012103A002F032F833
:1044100008BD0120F6E70000000000002DE9FC4186
:10442000002507462E4601950C0000D10124FFF718
:104430002BFD009690B101AB22460921384602F0CF
:1044400065F8012812D1019888B10A494FF08050CF
:104450000860BFF34F8FBFF36F8F08E00023224641
:104460000421384602F052F8012800D0FF252846E2
:10447000BDE8FC8104ED00E02DE9F041184C0F4649
:10448000054666692068001D00F0E2FF38B9206823
:1044900090F82C1001208840A1698143A161681C1B
:1044A00007D137B12168BDE8F0410E48091D01F080
:1044B00008B820683544B5424560216805D2A06837
:1044C000BDE8F041091D00F0E4BF6068091D00F07F
:1044D000E0FF206B854200D22563BDE8F08100003B
:1044E0002C000020000600202DE9F041054600F0D8
:1044F000F5FF2E4C2069401C206120682C4F10B124
:10450000E06940B32DE025602069012829D100260B
:1045100006EB860007EB800000F0ADFF761C072E4F
:10452000F6D323488C3000F0A6FF2148A03000F0DD
:10453000A2FF1F48B43000F09EFF1D48C83000F0B5
:104540009AFF1B48DC3000F096FF19488C30606001
:104550001430A06005E02068E96AC06A884200D88B
:104560002560E06A401CE062E96A0120A269884097
:104570001043A06101EB810007EB8000291D00F0D2
:10458000A0FF00F0CBFFE06900280CD02068E96AAA
:10459000C06A884207D207494FF080500860BFF3D5
:1045A0004F8FBFF36F8FBDE8F08100002C0000201B
:1045B0002405002004ED00E010B500F08FFF0E4C44
:1045C000A068A0B90D4800F056FF0C48143000F068
:1045D00052FF0A4820601430606000220C210A203B
:1045E00001F0CEF9A06010B105A101F015F8BDE809
:1045F000104000F093BF0000680000201406002067
:10460000546D72510000000030B4026C0B46002A59
:104610000BD0C1681144C1604468A14201D3016854
:10462000C16030BC1846FBF7FBBD30BC70472DE9BC
:10463000F041856B174604460026026C82B1C7B173
:10464000E068FBF7EDFDE168206C091AE160226883
:10465000914202D26168081AE060022F16D017E07A
:104660002068A8B9606801F0D3FD064600206060AC
:104670000EE0A068FBF7D4FD216CA0680844A060A0
:104680006168884204D32068A06001E005B16D1E16
:104690006D1CA5633046BDE8F08110B50446006B83
:1046A00000F050FF2046BDE8104000F04BBF000076
:1046B00010484FF4A041420706D0C01D0D4920F01C
:1046C0000700411AC1F5A0410B4A00230144C2E989
:1046D00000030839103A21F0070111604B600B60AC
:1046E0000B1AC0E9001393604FF000405360D06094
:1046F000704700003C0600208C000020144E154C32
:10470000A6F1C8074FF08058DFF84C9012E000BFC8
:1047100000F0E4FEF068C568281D00F099FE2069ED
:10472000401E2061E068401EE06000F0F7FE284671
:10473000FFF7B3FFE0680028EAD138680128F9D90B
:10474000C9F80080BFF34F8FBFF36F8FF2E700000F
:10475000EC0500202C00002004ED00E02DE9F047DE
:104760009A46DDE9098481466FF00303206B03EB71
:1047700082021044089D20F00706700707D05020E1
:1047800080F31188BFF34F8FBFF36F8FFEE72318BD
:104790000A5C83F834200A5C12B1401C1028F6D35E
:1047A000002784F84370072D00D30625E562C4E98D
:1047B0001157201D00F06AFE04F1180000F066FE9B
:1047C0002461C5F107006462A061E76484F8507059
:1047D00052464946304600F03DFA2060B8F1000FDD
:1047E00001D0C8F80040BDE8F087000030B511499D
:1047F00000E011460A688242FBD34B685C18844291
:1048000003D1406818444860084643681C18944225
:1048100009D1084C103C2468A24209D052681A44BD
:1048200042600A6812680260814200D0086030BDB0
:104830000460F9E78C00002070B5002441600B4D46
:104840000061914206D8D11A8269914206D2011DB7
:10485000686807E09A4203D2994201D3012403E039
:10486000011D286800F015FE204670BD680000207C
:1048700010B5044600F032FEA06B28B15FF00004D2
:1048800000F04CFE204610BD0124F9E730B587B09A
:104890002B4D4BE00498002848DB069C606910B162
:1048A000201D00F0D5FD02A800F0B6F802460498DD
:1048B0000A283BD2DFE800F00505053A2637050552
:1048C0003A260598A169034601442046FFF7B4FF44
:1048D00000B3616A20468847E069012826D100209C
:1048E00000900598A169002342181946204601F05E
:1048F0000DFE78B9502080F31188BFF34F8FBFF3BE
:104900006F8FFEE70598A06128B1811813462046F5
:10491000FFF792FF0AE0502080F31188BFF34F8F1A
:10492000BFF36F8FFEE7204600F00CFE002204A9C3
:10493000A86801F0E9F90028ACD107B030BD00004B
:10494000680000202DE9FC410F46054600F08EFF6F
:1049500001A800F061F80446019818B101F028FDA3
:10496000BDE8FC81224EAFB170680068A8B3002793
:10497000291B3A46B06800F063FE01F019FD0028DB
:10498000EED11C494FF080500860BFF34F8FBFF34A
:104990006F8FE5E7A542EBD801F00AFD30682746A6
:1049A000C068C468201D00F053FDE069012810D1E3
:1049B000A0692B4641193A462046FFF73DFF40B11A
:1049C00000200346014600902A46204601F09EFD45
:1049D00020B1616A20468847C2E707E0502080F393
:1049E0001188BFF34F8FBFF36F8FFEE70127BFE73B
:1049F0006800002004ED00E006484168096829B11C
:104A00004168C968C9684968016370474FF0FF3160
:104A1000FAE700002C00002070B5054601F08EFB7F
:104A2000064E04463069844203D200F009F80120A2
:104A300000E0002028602046346170BD680000203E
:104A4000F8B5194D1FE0C068C4680668201D00F065
:104A5000FFFC616A20468847E069012813D1A069FC
:104A60003044B04206D924616060211D286800F0FE
:104A700010FD08E000200346014600903246204623
:104A800001F044FD38B1286801680029DBD169686C
:104A9000C5E90010F8BD502080F31188BFF34F8F97
:104AA000BFF36F8FFEE700006800002008484068F1
:104AB000401C4FF0500080F3118804D0BFF34F8F9B
:104AC000BFF36F8FFEE7BFF34F8FBFF36F8FFEE72C
:104AD00094000020074C2068016841B1C0680021A3
:104AE000D0F80000FFF72EFFFFF7D0FEF3E701211B
:104AF0000020F7E7680000202DE9F041044600F0AF
:104B0000EDFC94F9455004F1240609E0606A48B1CF
:104B1000304601F013FC08B100F0E2FD6D1E6DB2ED
:104B2000002DF3DC4FF0FF3684F8456000F0F6FC12
:104B300000F0D4FC94F9445004F1100709E0206916
:104B400048B1384601F0FAFB08B100F0C9FD6D1E0E
:104B50006DB2002DF3DC84F84460BDE8F04100F054
:104B6000DDBC00002DE9F0410546002700F07EFE87
:104B7000314E306808B9FFF79BFDF06805424BD114
:104B8000C5B3083568070ED005F00700C0F108006E
:104B90000544680707D0502080F31188BFF34F8F7A
:104BA000BFF36F8FFEE72DB37068854234D822487B
:104BB000103001460C6801E020460C466168A942AD
:104BC00002D221680029F7D131688C4224D00768CD
:104BD0002168016060680837411B10290FD96019EE
:104BE000420708D0502080F31188BFF34F8FBFF3E6
:104BF0006F8FFEE710E041606560FFF7F7FD6168C9
:104C00007068401A7060B268904200D2B060F0687C
:104C100001430020C4E9000101F0CAFB780707D076
:104C2000502080F31188BFF34F8FBFF36F8FFEE7E3
:104C30003846BDE8F08100007C0000200449086887
:104C400018B10868826C521C8264086870470000C2
:104C50002C00002010B5031F4FF080741C601B1F38
:104C600021F001011960191F024B0B601439403803
:104C70000A6010BDAD4A000870B5FF220B4C0273EC
:104C8000427304F580750AE0027B11F8013B5A403B
:104C90000282437BA65C73400373AA5C4273C289A1
:104CA000531EC381F0D2808940BA70BD10660008DF
:104CB00070B50446B0F82002002508285FD3801E96
:104CC000E08104F120012046FFF7D6FFB4F820026E
:104CD00004F11E01227B415C8A4250D104F11F0184
:104CE000627B405C82424AD194F82010A07A8142D3
:104CF00045D194F821000121E07202281FD001283B
:104D000021D0042823D0032825D0052827D00F2818
:104D100029D006282BD010282DD004F22220A27AE8
:104D20002A5494F82120022380320A540322A4F842
:104D300022241954D4F83404BDE8704000472046BA
:104D400000F050F9F6E7204600F0ECF8F2E72046D4
:104D500000F0FBF9EEE7204600F0A2F9EAE7204672
:104D600000F0C0FAE6E7204600F044FAE2E7204609
:104D700000F0ECFADEE7204600F078FADAE770BDE2
:104D800070B5134C04F22221B4F82204E0810D46E0
:104D90002046FFF771FFB4F82214207B4855B4F881
:104DA0002204401C80B2A4F82204617B4155B4F86F
:104DB0002204401CA4F82204D4F82C048047B4F840
:104DC000222429462068BDE87040FDF79DBE000002
:104DD000AC5E00200248002201894068FCF7E9BC73
:104DE000AC5E00200248012201894068FCF7E1BC6A
:104DF000AC5E00200D4A82B0116808680368DB06CB
:104E000011D5C368DB060ED5036840680090486B77
:104E100000684068C0F50070A2F8200204480068ED
:104E200002B0FFF777BA02B070470000AC5E002016
:104E3000B00000201C4810B5C17A0022052903D01B
:104E40000F2912D1C2832AE0174990F8243091F833
:104E50002500D1F82444C98AFF2B214406D0002B19
:104E600003D1002801D181F8002110BD0028FCD118
:104E7000012081F8000110BD00EBD10201F0070311
:104E800092F82720C48ADA40D0F8243401F58071E2
:104E9000234402F001025A54C18B491CC183C18BC7
:104EA000028B9142E8D310BDAC5E002030B51C48A7
:104EB0004FF4A062C17A062905D010290FD1002134
:104EC000C183012426E090F8251090F8243001EBEE
:104ED0000321D0F82434C08A02EB4000195230BDBF
:104EE000C58AD0F8243401F5E0612B445C54C18BB1
:104EF00000EB410393F8285093F8273005EB032388
:104F0000C58A2944D0F8245402EB41016B52C18B6D
:104F1000491CC183038B89B29942E1D330BD0000A3
:104F2000AC5E0020F0B50023827A00F22221012439
:104F3000A0F822445A5490F8235090F822200327D6
:104F400005EB022295B2458290F8256090F8242066
:104F500006EB022292B2828205EB020C022690F846
:104F60002150BCF5807F05D980356554A0F82274A6
:104F70007654F0BD5FEA427C4FEAD20200D0521C68
:104F800042836554A0F822747254C38324E054070A
:104F900000D10377848AA24208D2458AD0F82444FB
:104FA000254402F580742C5D012C02D0047F640836
:104FB00003E0047F802545EA540452070477B2F1E8
:104FC000604F06D1B0F82224E5B2541CA0F8224468
:104FD0005554C28B521CC283C28B448BB2EBC40F9C
:104FE000D5D3F0BDF0B50025827A00F2222101244C
:104FF000A0F822446A5490F8232090F82230032726
:1050000002EB032293B2438290F8256090F82420AB
:1050100006EB022292B2828203EB020C022690F887
:105020002130BCF5807F05D980336354A0F8227409
:105030007654F0BD5FEA427C4FEAD20200D0521CA7
:1050400042836354A0F822747254C58322E053074C
:1050500000D10577838A9A4206D2438AD0F8244445
:105060001344E35C012B02D0037F5B0803E0037F62
:10507000802444EA530352070377B2F1604F06D10C
:10508000DCB2B0F822345A1CA0F822245C54C28B43
:10509000521CC283C28B438BB2EBC30FD7D3F0BD7C
:1050A000F0B50027827A00F222210125A0F82254CF
:1050B0007A5490F8232090F8223002EB032292B227
:1050C000428290F8253090F8244003EB04239EB2EE
:1050D000868202EB060C0223032490F82120BCF503
:1050E000807F05D980326A54A0F822445B54F0BD19
:1050F0006A547200A0F822445A54C78320E0438ABD
:10510000D0F824441A444FF4A06303EB4202A25A9D
:10511000150AB0F82224541CA0F822445554C28B1E
:10512000448A224403EB4202D0F824349C5CB0F859
:1051300022345A1CA0F822245C54C28B521CC28315
:10514000C28B838A9A42DAD3F0BDF0B50027827A07
:1051500000F222210125A0F822547A5490F823204D
:1051600090F8223002EB032292B2428290F825306E
:1051700090F8244003EB04239EB2868202EB060CD7
:105180000223032490F82120BCF5807F05D98032CA
:105190006A54A0F822445B54F0BD6A547200A0F82F
:1051A00022445A54C78320E0438AD0F824441A4446
:1051B0004FF4407303EB4202A25A150AB0F82224BE
:1051C000541CA0F822445554C28B448A224403EB59
:1051D0004202D0F824349C5CB0F822345A1CA0F867
:1051E00022245C54C28B521CC283C28B838A9A4293
:1051F000DAD3F0BD2DE9F0030022837A00F22221F8
:105200000124A0F82244535490F823C090F822704F
:105210004FF003090CEB072292B2C28290F825608E
:1052200090F8245006EB05239BB2038302EB03089E
:10523000022390F82120B8F5807F07D9803262548C
:10524000A0F822945B54BDE8F003704762545F54A9
:10525000042309F801C005225D540623A0F8223476
:105260005654D0F83804BDE8F00300472DE9F003A8
:105270000022837A00F222210124A0F82244535410
:1052800090F823C090F822704FF003090CEB07222E
:1052900092B2C28290F8256090F8245006EB052364
:1052A0009BB2038302EB0308022390F82120B8F598
:1052B000807F07D980326254A0F822945B54BDE805
:1052C000F003704762545F54042309F801C00522BB
:1052D0005D540623A0F822345654D0F83C04BDE8AF
:1052E000F00300472DE9F0410025827A00F22221E7
:1052F0000123A0F822346A5490F823E090F822C0E9
:1053000002270EEB0C2296B2C682032490F82120CD
:10531000761CB6F5807F06D980325A54A0F8224414
:105320007F54BDE8F0815A5407F801C0042204F804
:1053300001E090F82440052354540622A0F82224CA
:105340005D54D0F83804BDE8F0410047F0B40022C5
:10535000847A00F222210123A0F82234545490F8D8
:10536000237090F822C0032407EB0C2296B2C68269
:10537000022290F82150761CB6F5807F06D9803540
:105380005D54A0F822445254F0BC70475D5402F8BA
:1053900001C00422675410F8244F54540523447864
:1053A0000622A0F8FE235C54D0F81804F0BC004795
:1053B0004FF47A742046FEF78EFFFBE70548FEF7B0
:1053C000F1FB4FF4FA742046FEF785FFFEF728FC48
:1053D000F9E70000440200200348FEF781FC00BF0B
:1053E000FEF7D4FCFCE70000040200200548FEF7AD
:1053F00075FB4FF47A742046FEF76DFFFEF7AAFBAB
:10540000F9E70000C4010020FBF726FA6420FEF74C
:1054100062FFFBF71AFAF9E70020FBF78FFA044C5A
:105420006420FEF758FFB4F80805FBF787FAF7E7A2
:10543000EC620020054D4FF4FA742046FEF74BFF56
:1054400080212846FCF7AEF9F7E70000000C014088
:10545000D0E9013201699A60D0E901235A604A68B3
:10546000824201D182684A60002202610868401EBF
:1054700008600868704700F108014FF0FF32C0E98A
:105480000112C160016100210160704700210161CA
:10549000704730B50B685A1C02D000F1080202E0D8
:1054A000026904E02246546825689D42FAD953688F
:1054B0004B6099608A60516008610168491C016015
:1054C00030BD42684A6093688B6093685960916010
:1054D00008610168491C016070470000502080F39A
:1054E0001188BFF34F8FBFF36F8F0A494868401C84
:1054F000486001280CD10848006810F0FF0F07D061
:10550000502080F31188BFF34F8FBFF36F8FFEE7FA
:10551000704700009400002004ED00E0084948684E
:1055200028B1401E486001D180F311887047502097
:1055300080F31188BFF34F8FBFF36F8FFEE700003A
:105540009400002070B5002827D0144DA0F1080465
:105550006168E868014207D1502080F31188BFF3E9
:105560004F8FBFF36F8FFEE722683AB1502080F370
:105570001188BFF34F8FBFF36F8FFEE781436160E8
:1055800000F074F960686968084468602046FFF7B5
:105590002DF9BDE8704000F00BBF70BD7C0000200D
:1055A0004FF0E02000210161816105494FF47A72DA
:1055B0000968B1FBF2F1491E4161072101617047A1
:1055C0002800002010B5FAF705FE114910280ED367
:1055D00000F1E02090F8F0030A78904207D25020C2
:1055E00080F31188BFF34F8FBFF36F8FFEE7094839
:1055F0000068896800F4E060884207D9502080F391
:105600001188BFF34F8FBFF36F8FFEE710BD00000F
:10561000940000200CED00E010B5084B002200BF04
:1056200053F832401CB1521C082AF9D310BD43F87C
:10563000321003EBC201486010BD0000E4040020FA
:1056400070B515460E460446FFF748FF94F944101E
:105650000020491C01D184F8440094F94510491CEC
:1056600001D184F84500FFF759FFA06B28B92A46FD
:10567000314604F1240000F051F82046BDE87040A6
:10568000FFF73ABA10B5020014D00F48806B38B15A
:10569000502080F31188BFF34F8FBFF36F8FFEE769
:1056A00000F0E4F800211046FEF7E6FE00F080FE70
:1056B000002807D105494FF080500860BFF34F8F95
:1056C000BFF36F8F10BD00002C00002004ED00E040
:1056D00002498A6A02604969416070472C000020D3
:1056E00001490120486270472C00002010B50C468B
:1056F00050B1094909681831FFF7CBFE2046BDE8D3
:1057000010400121FEF7B8BE502080F31188BFF38E
:105710004F8FBFF36F8FFEE72C00002070B514464B
:105720000D4668B10A4909681831FFF7CAFE0CB185
:105730004FF0FF3521462846BDE87040FEF79CBE7D
:10574000502080F31188BFF34F8FBFF36F8FFEE7B8
:105750002C00002070B504004BD0A26CA2B1606C8C
:10576000884200D30146E06A884242D0012A40D1F3
:10577000204D2A6894420FD1502080F31188BFF346
:105780004F8FBFF36F8FFEE7502080F31188BFF378
:105790004F8FBFF36F8FFEE7E162A269002A02DB41
:1057A000C1F10701A161144E00EB8000616906EBB5
:1057B000800081421DD1201DFFF74AFE012150B912
:1057C000E06A00EB800256F8222022B9AA6901FAA9
:1057D00000F08243AA61E06AAA6981401143A9618D
:1057E00000EB800006EB8000211DBDE87040FFF754
:1057F00068BE70BD2C000020240500201CB5174891
:105800000024CDE900402346802215A1164800F06F
:105810005BFC012803D100F055FE012809D0401C93
:105820001AD1502080F31188BFF34F8FBFF36F8FD1
:10583000FEE7502080F31188BFF34F8FBFF36F8FC7
:1058400006484FF0FF31343801630121C1614461E2
:10585000BDE81C4000F040B81CBD00006000002006
:1058600049444C4500000000FD4600080248816B99
:10587000491C8163704700002C0000201448816B94
:1058800011B1012141627047002141628169B1FA81
:1058900081F1C1F11F0101EB81020E4951F8223063
:1058A0006BB101EB820101F108034A6852684A605A
:1058B0009A4201D152684A60D16801607047502015
:1058C00080F31188BFF34F8FBFF36F8FFEE70000A7
:1058D0002C000020240500201CB5264908780190E2
:1058E000FF20087008788DF800009DF800009DF8F2
:1058F000002000F0F000904207D0502080F3118883
:10590000BFF34F8FBFF36F8FFEE79DF800001A4B78
:1059100000F0500018700720986005E09DF8002006
:1059200052008DF80020401E9DF800201206F5D48C
:105930009860032807D0502080F31188BFF34F8F61
:10594000BFF36F8FFEE74FF44070986001980870C6
:105950000A48016841F470010160016841F070413A
:105960000160FFF71DFE00205860FAF7FDFB0020E4
:105970001CBD000000E400E09400002020ED00E0E9
:1059800070B50E46050013D0D6B105FB06F04830C1
:10599000FFF7E8F8040009D004F1480120468EB171
:1059A0000160C0E90F56012100F00EF8204670BDDD
:1059B000502080F31188BFF34F8FBFF36F8FFEE746
:1059C0000020E4E70060ECE770B50D46040025D048
:1059D000FFF784FDD4E90F20216802FB001161600C
:1059E0000021A1632168A1600A46D4E90F01401E8D
:1059F00000FB0121E16021464FF0FF3001F8440F28
:105A0000487004F110008DB1FFF735FD04F124005A
:105A1000FFF731FDFFF782FD012070BD502080F3BC
:105A20001188BFF34F8FBFF36F8FFEE72169002905
:105A3000F0D000F083FC0028ECD004494FF08050F7
:105A40000860BFF34F8FBFF36F8FE3E704ED00E013
:105A50002DE9FF4782B01D468A464FF0000804003A
:105A600003D0BAF1000F08D011E0502080F3118864
:105A7000BFF34F8FBFF36F8FFEE7206C38B150201C
:105A800080F31188BFF34F8FBFF36F8FFEE7022DB6
:105A90000AD1E06B012807D0502080F31188BFF3B2
:105AA0004F8FBFF36F8FFEE700F03AFB3F4F4FF091
:105AB00000094FF0805648B9049838B1502080F35F
:105AC0001188BFF34F8FBFF36F8FFEE7FFF706FD1F
:105AD000A06BE16B884207D3022D05D00498D0B1AA
